{"contracts/MerkleTree.sol":{"MerkleTree":{"abi":[{"inputs":[],"stateMutability":"nonpayable","type":"constructor"},{"anonymous":false,"inputs":[{"indexed":true,"internalType":"address","name":"previousOwner","type":"address"},{"indexed":true,"internalType":"address","name":"newOwner","type":"address"}],"name":"OwnershipTransferred","type":"event"},{"inputs":[{"internalType":"uint256","name":"_index","type":"uint256"}],"name":"hashByIndex","outputs":[{"internalType":"uint256","name":"","type":"uint256"}],"stateMutability":"view","type":"function"},{"inputs":[],"name":"hashLength","outputs":[{"internalType":"uint256","name":"","type":"uint256"}],"stateMutability":"view","type":"function"},{"inputs":[],"name":"hashes","outputs":[{"internalType":"uint256[]","name":"","type":"uint256[]"}],"stateMutability":"view","type":"function"},{"inputs":[],"name":"index","outputs":[{"internalType":"uint256","name":"","type":"uint256"}],"stateMutability":"view","type":"function"},{"inputs":[{"internalType":"uint256","name":"hashedLeaf","type":"uint256"}],"name":"insertLeaf","outputs":[{"internalType":"uint256","name":"","type":"uint256"}],"stateMutability":"nonpayable","type":"function"},{"inputs":[],"name":"owner","outputs":[{"internalType":"address","name":"","type":"address"}],"stateMutability":"view","type":"function"},{"inputs":[],"name":"renounceOwnership","outputs":[],"stateMutability":"nonpayable","type":"function"},{"inputs":[],"name":"root","outputs":[{"internalType":"uint256","name":"","type":"uint256"}],"stateMutability":"view","type":"function"},{"inputs":[{"internalType":"address","name":"newOwner","type":"address"}],"name":"transferOwnership","outputs":[],"stateMutability":"nonpayable","type":"function"},{"inputs":[{"internalType":"uint256[2]","name":"a","type":"uint256[2]"},{"internalType":"uint256[2][2]","name":"b","type":"uint256[2][2]"},{"internalType":"uint256[2]","name":"c","type":"uint256[2]"},{"internalType":"uint256[1]","name":"input","type":"uint256[1]"}],"name":"verify","outputs":[{"internalType":"bool","name":"","type":"bool"}],"stateMutability":"view","type":"function"},{"inputs":[{"internalType":"uint256[2]","name":"a","type":"uint256[2]"},{"internalType":"uint256[2][2]","name":"b","type":"uint256[2][2]"},{"internalType":"uint256[2]","name":"c","type":"uint256[2]"},{"internalType":"uint256[1]","name":"input","type":"uint256[1]"}],"name":"verifyProof","outputs":[{"internalType":"bool","name":"r","type":"bool"}],"stateMutability":"view","type":"function"}],"evm":{"bytecode":{"linkReferences":{"contracts/Poseidon.sol":{"PoseidonT3":[{"length":20,"start":173},{"length":20,"start":3022}]}},"object":"608060405260006002553480156200001657600080fd5b50620000376200002b620001c660201b60201c565b620001ce60201b60201c565b60005b6008811015620000845760016000908060018154018082558091505060019003906000526020600020016000909190919091505580806200007b90620002f6565b9150506200003a565b5060005b600d811015620001a7576000600282620000a3919062000372565b036200019157600173__$86e0c54df1042e28bf2dd20ccf184dc428$__6329a5f2f66040518060400160405280620000e1866200029260201b60201c565b815260200162000105600187620000f99190620003aa565b6200029260201b60201c565b8152506040518263ffffffff1660e01b8152600401620001269190620004a0565b602060405180830381865af415801562000144573d6000803e3d6000fd5b505050506040513d601f19601f820116820180604052508101906200016a9190620004f3565b90806001815401808255809150506001900390600052602060002001600090919091909150555b80806200019e90620002f6565b91505062000088565b50620001ba600e6200029260201b60201c565b60038190555062000554565b600033905090565b60008060009054906101000a900473ffffffffffffffffffffffffffffffffffffffff169050816000806101000a81548173ffffffffffffffffffffffffffffffffffffffff021916908373ffffffffffffffffffffffffffffffffffffffff1602179055508173ffffffffffffffffffffffffffffffffffffffff168173ffffffffffffffffffffffffffffffffffffffff167f8be0079c531659141344cd1fd0a4f28419497f9722a3daafe3b4186f6b6457e060405160405180910390a35050565b600060018281548110620002ab57620002aa62000525565b5b90600052602060002001549050919050565b7f4e487b7100000000000000000000000000000000000000000000000000000000600052601160045260246000fd5b6000819050919050565b60006200030382620002ec565b91507fffffffffffffffffffffffffffffffffffffffffffffffffffffffffffffffff8203620003385762000337620002bd565b5b600182019050919050565b7f4e487b7100000000000000000000000000000000000000000000000000000000600052601260045260246000fd5b60006200037f82620002ec565b91506200038c83620002ec565b9250826200039f576200039e62000343565b5b828206905092915050565b6000620003b782620002ec565b9150620003c483620002ec565b9250828201905080821115620003df57620003de620002bd565b5b92915050565b600060029050919050565b600081905092915050565b6000819050919050565b6200041081620002ec565b82525050565b600062000424838362000405565b60208301905092915050565b6000602082019050919050565b6200044881620003e5565b620004548184620003f0565b92506200046182620003fb565b8060005b83811015620004985781516200047c878262000416565b9650620004898362000430565b92505060018101905062000465565b505050505050565b6000604082019050620004b760008301846200043d565b92915050565b600080fd5b620004cd81620002ec565b8114620004d957600080fd5b50565b600081519050620004ed81620004c2565b92915050565b6000602082840312156200050c576200050b620004bd565b5b60006200051c84828501620004dc565b91505092915050565b7f4e487b7100000000000000000000000000000000000000000000000000000000600052603260045260246000fd5b61275f80620005646000396000f3fe608060405234801561001057600080fd5b50600436106100a95760003560e01c80638da5cb5b116100715780638da5cb5b14610154578063a81d9bcc14610172578063b720243414610190578063ebf0c717146101c0578063f2fde38b146101de578063f716e5ed146101fa576100a9565b80632986c0e5146100ae5780632fa8ea6d146100cc57806343753b4d146100fc578063715018a61461012c5780638abe559314610136575b600080fd5b6100b661022a565b6040516100c39190611939565b60405180910390f35b6100e660048036038101906100e19190611c38565b610230565b6040516100f39190611cbc565b60405180910390f35b61011660048036038101906101119190611c38565b610248565b6040516101239190611cbc565b60405180910390f35b6101346104c1565b005b61013e6104d5565b60405161014b9190611939565b60405180910390f35b61015c6104e2565b6040516101699190611d18565b60405180910390f35b61017a61050b565b6040516101879190611df1565b60405180910390f35b6101aa60048036038101906101a59190611e13565b610563565b6040516101b79190611939565b60405180910390f35b6101c86107e2565b6040516101d59190611939565b60405180910390f35b6101f860048036038101906101f39190611e6c565b6107e8565b005b610214600480360381019061020f9190611e13565b61086b565b6040516102219190611939565b60405180910390f35b60025481565b600061023e85858585610248565b9050949350505050565b60006102526117de565b60405180604001604052808760006002811061027157610270611e99565b5b602002015181526020018760016002811061028f5761028e611e99565b5b6020020151815250816000018190525060405180604001604052806040518060400160405280886000600281106102c9576102c8611e99565b5b60200201516000600281106102e1576102e0611e99565b5b60200201518152602001886000600281106102ff576102fe611e99565b5b602002015160016002811061031757610316611e99565b5b6020020151815250815260200160405180604001604052808860016002811061034357610342611e99565b5b602002015160006002811061035b5761035a611e99565b5b602002015181526020018860016002811061037957610378611e99565b5b602002015160016002811061039157610390611e99565b5b602002015181525081525081602001819052506040518060400160405280856000600281106103c3576103c2611e99565b5b60200201518152602001856001600281106103e1576103e0611e99565b5b602002015181525081604001819052506000600167ffffffffffffffff81111561040e5761040d611979565b5b60405190808252806020026020018201604052801561043c5781602001602082028036833780820191505090505b50905060005b60018110156104955784816001811061045e5761045d611e99565b5b602002015182828151811061047657610475611e99565b5b602002602001018181525050808061048d90611ef7565b915050610442565b5060006104a28284610893565b036104b2576001925050506104b9565b6000925050505b949350505050565b6104c9610a86565b6104d36000610b04565b565b6000600180549050905090565b60008060009054906101000a900473ffffffffffffffffffffffffffffffffffffffff16905090565b6060600180548060200260200160405190810160405280929190818152602001828054801561055957602002820191906000526020600020905b815481526020019060010190808311610545575b5050505050905090565b600061056d610a86565b6000600390508060026105809190612072565b600254106105c3576040517f08c379a00000000000000000000000000000000000000000000000000000000081526004016105ba90612140565b60405180910390fd5b826001600254815481106105da576105d9611e99565b5b90600052602060002001819055506000600254905060005b82811015610768576000600283610609919061218f565b90506000818461061991906121c0565b905060008260018661062b91906121f4565b61063591906121c0565b90506002838661064591906121c0565b61064f9190612228565b86600261065c9190612072565b61066691906121f4565b945073__$86e0c54df1042e28bf2dd20ccf184dc428$__6329a5f2f66040518060400160405280600186815481106106a1576106a0611e99565b5b90600052602060002001548152602001600185815481106106c5576106c4611e99565b5b90600052602060002001548152506040518263ffffffff1660e01b81526004016106ef9190612304565b602060405180830381865af415801561070c573d6000803e3d6000fd5b505050506040513d601f19601f820116820180604052508101906107309190612334565b6001868154811061074457610743611e99565b5b9060005260206000200181905550505050808061076090611ef7565b9150506105f2565b506001600260018461077a91906121f4565b60026107869190612072565b61079091906121c0565b815481106107a1576107a0611e99565b5b9060005260206000200154600381905550600260008154809291906107c590611ef7565b919050555060016002546107d991906121c0565b92505050919050565b60035481565b6107f0610a86565b600073ffffffffffffffffffffffffffffffffffffffff168173ffffffffffffffffffffffffffffffffffffffff160361085f576040517f08c379a0000000000000000000000000000000000000000000000000000000008152600401610856906123d3565b60405180910390fd5b61086881610b04565b50565b60006001828154811061088157610880611e99565b5b90600052602060002001549050919050565b6000807f30644e72e131a029b85045b68181585d2833e84879b9709143e1f593f0000001905060006108c3610bc8565b9050806080015151600186516108d991906121f4565b14610919576040517f08c379a00000000000000000000000000000000000000000000000000000000081526004016109109061243f565b60405180910390fd5b60006040518060400160405280600081526020016000815250905060005b8651811015610a08578387828151811061095457610953611e99565b5b60200260200101511061099c576040517f08c379a0000000000000000000000000000000000000000000000000000000008152600401610993906124ab565b60405180910390fd5b6109f3826109ee85608001516001856109b591906121f4565b815181106109c6576109c5611e99565b5b60200260200101518a85815181106109e1576109e0611e99565b5b6020026020010151610fcc565b6110a4565b91508080610a0090611ef7565b915050610937565b50610a32818360800151600081518110610a2557610a24611e99565b5b60200260200101516110a4565b9050610a68610a4486600001516111a2565b8660200151846000015185602001518587604001518b604001518960600151611247565b610a785760019350505050610a80565b600093505050505b92915050565b610a8e611414565b73ffffffffffffffffffffffffffffffffffffffff16610aac6104e2565b73ffffffffffffffffffffffffffffffffffffffff1614610b02576040517f08c379a0000000000000000000000000000000000000000000000000000000008152600401610af990612517565b60405180910390fd5b565b60008060009054906101000a900473ffffffffffffffffffffffffffffffffffffffff169050816000806101000a81548173ffffffffffffffffffffffffffffffffffffffff021916908373ffffffffffffffffffffffffffffffffffffffff1602179055508173ffffffffffffffffffffffffffffffffffffffff168173ffffffffffffffffffffffffffffffffffffffff167f8be0079c531659141344cd1fd0a4f28419497f9722a3daafe3b4186f6b6457e060405160405180910390a35050565b610bd0611811565b60405180604001604052807f2d4d9aa7e302d9df41749d5507949d05dbea33fbb16c643b22f599a2be6df2e281526020017f14bedd503c37ceb061d8ec60209fe345ce89830a19230301f076caff004d19268152508160000181905250604051806040016040528060405180604001604052807f0967032fcbf776d1afc985f88877f182d38480a653f2decaa9794cbc3bf3060c81526020017f0e187847ad4c798374d0d6732bf501847dd68bc0e071241e0213bc7fc13db7ab815250815260200160405180604001604052807f304cfbd1e08a704a99f5e847d93f8c3caafddec46b7a0d379da69a4d112346a781526020017f1739c1b1a457a8c7313123d24d2f9192f896b7c63eea05a9d57f06547ad0cec88152508152508160200181905250604051806040016040528060405180604001604052807f198e9393920d483a7260bfb731fb5d25f1aa493335a9e71297e485b7aef312c281526020017f1800deef121f1e76426a00665e5c4479674322d4f75edadd46debd5cd992f6ed815250815260200160405180604001604052807f090689d0585ff075ec9e99ad690c3395bc4b313370b38ef355acdadcd122975b81526020017f12c85ea5db8c6deb4aab71808dcb408fe3d1e7690c43d37b4ce6cc0166fa7daa8152508152508160400181905250604051806040016040528060405180604001604052807f2339d8151e9a2d71f72853d0fd12debcc87d6d84a6aa92c3c013468d89c1159781526020017f0a66f1b11b89d5bfd3985afda16a639b1cb62c09ace32eece518bffd3d06789c815250815260200160405180604001604052807f18775cea22a5b66e8fd3f32fad682a1dc6a6adc4635a56fa77ba91d96d513fbe81526020017f0f9d114437dbde311e2ce2edfd669704948249207182a836c39ce22bca118efb8152508152508160600181905250600267ffffffffffffffff811115610e9757610e96611979565b5b604051908082528060200260200182016040528015610ed057816020015b610ebd611858565b815260200190600190039081610eb55790505b50816080018190525060405180604001604052807f083298211f74d84c8b2c4b823342156125e6704673b72fe73e1e5e8ab29a3b9581526020017f042379d9f61c0661d02adb7ee49ea69db2d5f4160834d2ea24c1013bd7226c2c8152508160800151600081518110610f4657610f45611e99565b5b602002602001018190525060405180604001604052807f18b7ae6d147782edffc93647db3368d27d540047b3cd8e01c8b516e8d396232681526020017f2883c536b52d4beb2cd53ab664cc6879d70d209c21e152667bb046318f9b2ea58152508160800151600181518110610fbe57610fbd611e99565b5b602002602001018190525090565b610fd4611858565b610fdc611872565b836000015181600060038110610ff557610ff4611e99565b5b60200201818152505083602001518160016003811061101757611016611e99565b5b602002018181525050828160026003811061103557611034611e99565b5b602002018181525050600060608360808460076107d05a03fa9050806000810361105b57fe5b508061109c576040517f08c379a000000000000000000000000000000000000000000000000000000000815260040161109390612583565b60405180910390fd5b505092915050565b6110ac611858565b6110b4611894565b8360000151816000600481106110cd576110cc611e99565b5b6020020181815250508360200151816001600481106110ef576110ee611e99565b5b60200201818152505082600001518160026004811061111157611110611e99565b5b60200201818152505082602001518160036004811061113357611132611e99565b5b602002018181525050600060608360c08460066107d05a03fa9050806000810361115957fe5b508061119a576040517f08c379a0000000000000000000000000000000000000000000000000000000008152600401611191906125ef565b60405180910390fd5b505092915050565b6111aa611858565b60007f30644e72e131a029b85045b68181585d97816a916871ca8d3c208c16d87cfd479050600083600001511480156111e7575060008360200151145b1561120b576040518060400160405280600081526020016000815250915050611242565b604051806040016040528084600001518152602001828560200151611230919061218f565b8361123b91906121c0565b8152509150505b919050565b600080600467ffffffffffffffff81111561126557611264611979565b5b60405190808252806020026020018201604052801561129e57816020015b61128b611858565b8152602001906001900390816112835790505b5090506000600467ffffffffffffffff8111156112be576112bd611979565b5b6040519080825280602002602001820160405280156112f757816020015b6112e46118b6565b8152602001906001900390816112dc5790505b5090508a8260008151811061130f5761130e611e99565b5b6020026020010181905250888260018151811061132f5761132e611e99565b5b6020026020010181905250868260028151811061134f5761134e611e99565b5b6020026020010181905250848260038151811061136f5761136e611e99565b5b6020026020010181905250898160008151811061138f5761138e611e99565b5b602002602001018190525087816001815181106113af576113ae611e99565b5b602002602001018190525085816002815181106113cf576113ce611e99565b5b602002602001018190525083816003815181106113ef576113ee611e99565b5b6020026020010181905250611404828261141c565b9250505098975050505050505050565b600033905090565b60008151835114611462576040517f08c379a00000000000000000000000000000000000000000000000000000000081526004016114599061265b565b60405180910390fd5b6000835190506000600682611477919061267b565b905060008167ffffffffffffffff81111561149557611494611979565b5b6040519080825280602002602001820160405280156114c35781602001602082028036833780820191505090505b50905060005b83811015611748578681815181106114e4576114e3611e99565b5b602002602001015160000151826000600684611500919061267b565b61150a91906121f4565b8151811061151b5761151a611e99565b5b60200260200101818152505086818151811061153a57611539611e99565b5b602002602001015160200151826001600684611556919061267b565b61156091906121f4565b8151811061157157611570611e99565b5b6020026020010181815250508581815181106115905761158f611e99565b5b6020026020010151600001516000600281106115af576115ae611e99565b5b60200201518260026006846115c4919061267b565b6115ce91906121f4565b815181106115df576115de611e99565b5b6020026020010181815250508581815181106115fe576115fd611e99565b5b60200260200101516000015160016002811061161d5761161c611e99565b5b6020020151826003600684611632919061267b565b61163c91906121f4565b8151811061164d5761164c611e99565b5b60200260200101818152505085818151811061166c5761166b611e99565b5b60200260200101516020015160006002811061168b5761168a611e99565b5b60200201518260046006846116a0919061267b565b6116aa91906121f4565b815181106116bb576116ba611e99565b5b6020026020010181815250508581815181106116da576116d9611e99565b5b6020026020010151602001516001600281106116f9576116f8611e99565b5b602002015182600560068461170e919061267b565b61171891906121f4565b8151811061172957611728611e99565b5b602002602001018181525050808061174090611ef7565b9150506114c9565b506117516118dc565b6000602082602086026020860160086107d05a03fa9050806000810361177357fe5b50806117b4576040517f08c379a00000000000000000000000000000000000000000000000000000000081526004016117ab90612709565b60405180910390fd5b6000826000600181106117ca576117c9611e99565b5b602002015114159550505050505092915050565b60405180606001604052806117f1611858565b81526020016117fe6118b6565b815260200161180b611858565b81525090565b6040518060a00160405280611824611858565b81526020016118316118b6565b815260200161183e6118b6565b815260200161184b6118b6565b8152602001606081525090565b604051806040016040528060008152602001600081525090565b6040518060600160405280600390602082028036833780820191505090505090565b6040518060800160405280600490602082028036833780820191505090505090565b60405180604001604052806118c96118fe565b81526020016118d66118fe565b81525090565b6040518060200160405280600190602082028036833780820191505090505090565b6040518060400160405280600290602082028036833780820191505090505090565b6000819050919050565b61193381611920565b82525050565b600060208201905061194e600083018461192a565b92915050565b6000604051905090565b600080fd5b600080fd5b6000601f19601f8301169050919050565b7f4e487b7100000000000000000000000000000000000000000000000000000000600052604160045260246000fd5b6119b182611968565b810181811067ffffffffffffffff821117156119d0576119cf611979565b5b80604052505050565b60006119e3611954565b90506119ef82826119a8565b919050565b600067ffffffffffffffff821115611a0f57611a0e611979565b5b602082029050919050565b600080fd5b611a2881611920565b8114611a3357600080fd5b50565b600081359050611a4581611a1f565b92915050565b6000611a5e611a59846119f4565b6119d9565b90508060208402830185811115611a7857611a77611a1a565b5b835b81811015611aa15780611a8d8882611a36565b845260208401935050602081019050611a7a565b5050509392505050565b600082601f830112611ac057611abf611963565b5b6002611acd848285611a4b565b91505092915050565b600067ffffffffffffffff821115611af157611af0611979565b5b602082029050919050565b6000611b0f611b0a84611ad6565b6119d9565b90508060408402830185811115611b2957611b28611a1a565b5b835b81811015611b525780611b3e8882611aab565b845260208401935050604081019050611b2b565b5050509392505050565b600082601f830112611b7157611b70611963565b5b6002611b7e848285611afc565b91505092915050565b600067ffffffffffffffff821115611ba257611ba1611979565b5b602082029050919050565b6000611bc0611bbb84611b87565b6119d9565b90508060208402830185811115611bda57611bd9611a1a565b5b835b81811015611c035780611bef8882611a36565b845260208401935050602081019050611bdc565b5050509392505050565b600082601f830112611c2257611c21611963565b5b6001611c2f848285611bad565b91505092915050565b6000806000806101208587031215611c5357611c5261195e565b5b6000611c6187828801611aab565b9450506040611c7287828801611b5c565b93505060c0611c8387828801611aab565b925050610100611c9587828801611c0d565b91505092959194509250565b60008115159050919050565b611cb681611ca1565b82525050565b6000602082019050611cd16000830184611cad565b92915050565b600073ffffffffffffffffffffffffffffffffffffffff82169050919050565b6000611d0282611cd7565b9050919050565b611d1281611cf7565b82525050565b6000602082019050611d2d6000830184611d09565b92915050565b600081519050919050565b600082825260208201905092915050565b6000819050602082019050919050565b611d6881611920565b82525050565b6000611d7a8383611d5f565b60208301905092915050565b6000602082019050919050565b6000611d9e82611d33565b611da88185611d3e565b9350611db383611d4f565b8060005b83811015611de4578151611dcb8882611d6e565b9750611dd683611d86565b925050600181019050611db7565b5085935050505092915050565b60006020820190508181036000830152611e0b8184611d93565b905092915050565b600060208284031215611e2957611e2861195e565b5b6000611e3784828501611a36565b91505092915050565b611e4981611cf7565b8114611e5457600080fd5b50565b600081359050611e6681611e40565b92915050565b600060208284031215611e8257611e8161195e565b5b6000611e9084828501611e57565b91505092915050565b7f4e487b7100000000000000000000000000000000000000000000000000000000600052603260045260246000fd5b7f4e487b7100000000000000000000000000000000000000000000000000000000600052601160045260246000fd5b6000611f0282611920565b91507fffffffffffffffffffffffffffffffffffffffffffffffffffffffffffffffff8203611f3457611f33611ec8565b5b600182019050919050565b60008160011c9050919050565b6000808291508390505b6001851115611f9657808604811115611f7257611f71611ec8565b5b6001851615611f815780820291505b8081029050611f8f85611f3f565b9450611f56565b94509492505050565b600082611faf576001905061206b565b81611fbd576000905061206b565b8160018114611fd35760028114611fdd5761200c565b600191505061206b565b60ff841115611fef57611fee611ec8565b5b8360020a91508482111561200657612005611ec8565b5b5061206b565b5060208310610133831016604e8410600b84101617156120415782820a90508381111561203c5761203b611ec8565b5b61206b565b61204e8484846001611f4c565b9250905081840481111561206557612064611ec8565b5b81810290505b9392505050565b600061207d82611920565b915061208883611920565b92506120b57fffffffffffffffffffffffffffffffffffffffffffffffffffffffffffffffff8484611f9f565b905092915050565b600082825260208201905092915050565b7f4d65726b6c65547265653a2063616e6e6f7420696e73657274206d6f7265206c60008201527f65617665732e0000000000000000000000000000000000000000000000000000602082015250565b600061212a6026836120bd565b9150612135826120ce565b604082019050919050565b600060208201905081810360008301526121598161211d565b9050919050565b7f4e487b7100000000000000000000000000000000000000000000000000000000600052601260045260246000fd5b600061219a82611920565b91506121a583611920565b9250826121b5576121b4612160565b5b828206905092915050565b60006121cb82611920565b91506121d683611920565b92508282039050818111156121ee576121ed611ec8565b5b92915050565b60006121ff82611920565b915061220a83611920565b925082820190508082111561222257612221611ec8565b5b92915050565b600061223382611920565b915061223e83611920565b92508261224e5761224d612160565b5b828204905092915050565b600060029050919050565b600081905092915050565b6000819050919050565b61228281611920565b82525050565b60006122948383612279565b60208301905092915050565b6000602082019050919050565b6122b681612259565b6122c08184612264565b92506122cb8261226f565b8060005b838110156122fc5781516122e38782612288565b96506122ee836122a0565b9250506001810190506122cf565b505050505050565b600060408201905061231960008301846122ad565b92915050565b60008151905061232e81611a1f565b92915050565b60006020828403121561234a5761234961195e565b5b60006123588482850161231f565b91505092915050565b7f4f776e61626c653a206e6577206f776e657220697320746865207a65726f206160008201527f6464726573730000000000000000000000000000000000000000000000000000602082015250565b60006123bd6026836120bd565b91506123c882612361565b604082019050919050565b600060208201905081810360008301526123ec816123b0565b9050919050565b7f76657269666965722d6261642d696e7075740000000000000000000000000000600082015250565b60006124296012836120bd565b9150612434826123f3565b602082019050919050565b600060208201905081810360008301526124588161241c565b9050919050565b7f76657269666965722d6774652d736e61726b2d7363616c61722d6669656c6400600082015250565b6000612495601f836120bd565b91506124a08261245f565b602082019050919050565b600060208201905081810360008301526124c481612488565b9050919050565b7f4f776e61626c653a2063616c6c6572206973206e6f7420746865206f776e6572600082015250565b60006125016020836120bd565b915061250c826124cb565b602082019050919050565b60006020820190508181036000830152612530816124f4565b9050919050565b7f70616972696e672d6d756c2d6661696c65640000000000000000000000000000600082015250565b600061256d6012836120bd565b915061257882612537565b602082019050919050565b6000602082019050818103600083015261259c81612560565b9050919050565b7f70616972696e672d6164642d6661696c65640000000000000000000000000000600082015250565b60006125d96012836120bd565b91506125e4826125a3565b602082019050919050565b60006020820190508181036000830152612608816125cc565b9050919050565b7f70616972696e672d6c656e677468732d6661696c656400000000000000000000600082015250565b60006126456016836120bd565b91506126508261260f565b602082019050919050565b6000602082019050818103600083015261267481612638565b9050919050565b600061268682611920565b915061269183611920565b925082820261269f81611920565b915082820484148315176126b6576126b5611ec8565b5b5092915050565b7f70616972696e672d6f70636f64652d6661696c65640000000000000000000000600082015250565b60006126f36015836120bd565b91506126fe826126bd565b602082019050919050565b60006020820190508181036000830152612722816126e6565b905091905056fea2646970667358221220d318789f24ec073eff9a44a88a6ecd2e99096e26c1b5f171bfe02e3781fd2d6664736f6c63430008120033","opcodes":"PUSH1 0x80 PUSH1 0x40 MSTORE PUSH1 0x0 PUSH1 0x2 SSTORE CALLVALUE DUP1 ISZERO PUSH3 0x16 JUMPI PUSH1 0x0 DUP1 REVERT JUMPDEST POP PUSH3 0x37 PUSH3 0x2B PUSH3 0x1C6 PUSH1 0x20 SHL PUSH1 0x20 SHR JUMP JUMPDEST PUSH3 0x1CE PUSH1 0x20 SHL PUSH1 0x20 SHR JUMP JUMPDEST PUSH1 0x0 JUMPDEST PUSH1 0x8 DUP2 LT ISZERO PUSH3 0x84 JUMPI PUSH1 0x1 PUSH1 0x0 SWAP1 DUP1 PUSH1 0x1 DUP2 SLOAD ADD DUP1 DUP3 SSTORE DUP1 SWAP2 POP POP PUSH1 0x1 SWAP1 SUB SWAP1 PUSH1 0x0 MSTORE PUSH1 0x20 PUSH1 0x0 KECCAK256 ADD PUSH1 0x0 SWAP1 SWAP2 SWAP1 SWAP2 SWAP1 SWAP2 POP SSTORE DUP1 DUP1 PUSH3 0x7B SWAP1 PUSH3 0x2F6 JUMP JUMPDEST SWAP2 POP POP PUSH3 0x3A JUMP JUMPDEST POP PUSH1 0x0 JUMPDEST PUSH1 0xD DUP2 LT ISZERO PUSH3 0x1A7 JUMPI PUSH1 0x0 PUSH1 0x2 DUP3 PUSH3 0xA3 SWAP2 SWAP1 PUSH3 0x372 JUMP JUMPDEST SUB PUSH3 0x191 JUMPI PUSH1 0x1 PUSH20 0x0 PUSH4 0x29A5F2F6 PUSH1 0x40 MLOAD DUP1 PUSH1 0x40 ADD PUSH1 0x40 MSTORE DUP1 PUSH3 0xE1 DUP7 PUSH3 0x292 PUSH1 0x20 SHL PUSH1 0x20 SHR JUMP JUMPDEST DUP2 MSTORE PUSH1 0x20 ADD PUSH3 0x105 PUSH1 0x1 DUP8 PUSH3 0xF9 SWAP2 SWAP1 PUSH3 0x3AA JUMP JUMPDEST PUSH3 0x292 PUSH1 0x20 SHL PUSH1 0x20 SHR JUMP JUMPDEST DUP2 MSTORE POP PUSH1 0x40 MLOAD DUP3 PUSH4 0xFFFFFFFF AND PUSH1 0xE0 SHL DUP2 MSTORE PUSH1 0x4 ADD PUSH3 0x126 SWAP2 SWAP1 PUSH3 0x4A0 JUMP JUMPDEST PUSH1 0x20 PUSH1 0x40 MLOAD DUP1 DUP4 SUB DUP2 DUP7 GAS DELEGATECALL ISZERO DUP1 ISZERO PUSH3 0x144 JUMPI RETURNDATASIZE PUSH1 0x0 DUP1 RETURNDATACOPY RETURNDATASIZE PUSH1 0x0 REVERT JUMPDEST POP POP POP POP PUSH1 0x40 MLOAD RETURNDATASIZE PUSH1 0x1F NOT PUSH1 0x1F DUP3 ADD AND DUP3 ADD DUP1 PUSH1 0x40 MSTORE POP DUP2 ADD SWAP1 PUSH3 0x16A SWAP2 SWAP1 PUSH3 0x4F3 JUMP JUMPDEST SWAP1 DUP1 PUSH1 0x1 DUP2 SLOAD ADD DUP1 DUP3 SSTORE DUP1 SWAP2 POP POP PUSH1 0x1 SWAP1 SUB SWAP1 PUSH1 0x0 MSTORE PUSH1 0x20 PUSH1 0x0 KECCAK256 ADD PUSH1 0x0 SWAP1 SWAP2 SWAP1 SWAP2 SWAP1 SWAP2 POP SSTORE JUMPDEST DUP1 DUP1 PUSH3 0x19E SWAP1 PUSH3 0x2F6 JUMP JUMPDEST SWAP2 POP POP PUSH3 0x88 JUMP JUMPDEST POP PUSH3 0x1BA PUSH1 0xE PUSH3 0x292 PUSH1 0x20 SHL PUSH1 0x20 SHR JUMP JUMPDEST PUSH1 0x3 DUP2 SWAP1 SSTORE POP PUSH3 0x554 JUMP JUMPDEST PUSH1 0x0 CALLER SWAP1 POP SWAP1 JUMP JUMPDEST PUSH1 0x0 DUP1 PUSH1 0x0 SWAP1 SLOAD SWAP1 PUSH2 0x100 EXP SWAP1 DIV PUSH20 0xFFFFFFFFFFFFFFFFFFFFFFFFFFFFFFFFFFFFFFFF AND SWAP1 POP DUP2 PUSH1 0x0 DUP1 PUSH2 0x100 EXP DUP2 SLOAD DUP2 PUSH20 0xFFFFFFFFFFFFFFFFFFFFFFFFFFFFFFFFFFFFFFFF MUL NOT AND SWAP1 DUP4 PUSH20 0xFFFFFFFFFFFFFFFFFFFFFFFFFFFFFFFFFFFFFFFF AND MUL OR SWAP1 SSTORE POP DUP2 PUSH20 0xFFFFFFFFFFFFFFFFFFFFFFFFFFFFFFFFFFFFFFFF AND DUP2 PUSH20 0xFFFFFFFFFFFFFFFFFFFFFFFFFFFFFFFFFFFFFFFF AND PUSH32 0x8BE0079C531659141344CD1FD0A4F28419497F9722A3DAAFE3B4186F6B6457E0 PUSH1 0x40 MLOAD PUSH1 0x40 MLOAD DUP1 SWAP2 SUB SWAP1 LOG3 POP POP JUMP JUMPDEST PUSH1 0x0 PUSH1 0x1 DUP3 DUP2 SLOAD DUP2 LT PUSH3 0x2AB JUMPI PUSH3 0x2AA PUSH3 0x525 JUMP JUMPDEST JUMPDEST SWAP1 PUSH1 0x0 MSTORE PUSH1 0x20 PUSH1 0x0 KECCAK256 ADD SLOAD SWAP1 POP SWAP2 SWAP1 POP JUMP JUMPDEST PUSH32 0x4E487B7100000000000000000000000000000000000000000000000000000000 PUSH1 0x0 MSTORE PUSH1 0x11 PUSH1 0x4 MSTORE PUSH1 0x24 PUSH1 0x0 REVERT JUMPDEST PUSH1 0x0 DUP2 SWAP1 POP SWAP2 SWAP1 POP JUMP JUMPDEST PUSH1 0x0 PUSH3 0x303 DUP3 PUSH3 0x2EC JUMP JUMPDEST SWAP2 POP PUSH32 0xFFFFFFFFFFFFFFFFFFFFFFFFFFFFFFFFFFFFFFFFFFFFFFFFFFFFFFFFFFFFFFFF DUP3 SUB PUSH3 0x338 JUMPI PUSH3 0x337 PUSH3 0x2BD JUMP JUMPDEST JUMPDEST PUSH1 0x1 DUP3 ADD SWAP1 POP SWAP2 SWAP1 POP JUMP JUMPDEST PUSH32 0x4E487B7100000000000000000000000000000000000000000000000000000000 PUSH1 0x0 MSTORE PUSH1 0x12 PUSH1 0x4 MSTORE PUSH1 0x24 PUSH1 0x0 REVERT JUMPDEST PUSH1 0x0 PUSH3 0x37F DUP3 PUSH3 0x2EC JUMP JUMPDEST SWAP2 POP PUSH3 0x38C DUP4 PUSH3 0x2EC JUMP JUMPDEST SWAP3 POP DUP3 PUSH3 0x39F JUMPI PUSH3 0x39E PUSH3 0x343 JUMP JUMPDEST JUMPDEST DUP3 DUP3 MOD SWAP1 POP SWAP3 SWAP2 POP POP JUMP JUMPDEST PUSH1 0x0 PUSH3 0x3B7 DUP3 PUSH3 0x2EC JUMP JUMPDEST SWAP2 POP PUSH3 0x3C4 DUP4 PUSH3 0x2EC JUMP JUMPDEST SWAP3 POP DUP3 DUP3 ADD SWAP1 POP DUP1 DUP3 GT ISZERO PUSH3 0x3DF JUMPI PUSH3 0x3DE PUSH3 0x2BD JUMP JUMPDEST JUMPDEST SWAP3 SWAP2 POP POP JUMP JUMPDEST PUSH1 0x0 PUSH1 0x2 SWAP1 POP SWAP2 SWAP1 POP JUMP JUMPDEST PUSH1 0x0 DUP2 SWAP1 POP SWAP3 SWAP2 POP POP JUMP JUMPDEST PUSH1 0x0 DUP2 SWAP1 POP SWAP2 SWAP1 POP JUMP JUMPDEST PUSH3 0x410 DUP2 PUSH3 0x2EC JUMP JUMPDEST DUP3 MSTORE POP POP JUMP JUMPDEST PUSH1 0x0 PUSH3 0x424 DUP4 DUP4 PUSH3 0x405 JUMP JUMPDEST PUSH1 0x20 DUP4 ADD SWAP1 POP SWAP3 SWAP2 POP POP JUMP JUMPDEST PUSH1 0x0 PUSH1 0x20 DUP3 ADD SWAP1 POP SWAP2 SWAP1 POP JUMP JUMPDEST PUSH3 0x448 DUP2 PUSH3 0x3E5 JUMP JUMPDEST PUSH3 0x454 DUP2 DUP5 PUSH3 0x3F0 JUMP JUMPDEST SWAP3 POP PUSH3 0x461 DUP3 PUSH3 0x3FB JUMP JUMPDEST DUP1 PUSH1 0x0 JUMPDEST DUP4 DUP2 LT ISZERO PUSH3 0x498 JUMPI DUP2 MLOAD PUSH3 0x47C DUP8 DUP3 PUSH3 0x416 JUMP JUMPDEST SWAP7 POP PUSH3 0x489 DUP4 PUSH3 0x430 JUMP JUMPDEST SWAP3 POP POP PUSH1 0x1 DUP2 ADD SWAP1 POP PUSH3 0x465 JUMP JUMPDEST POP POP POP POP POP POP JUMP JUMPDEST PUSH1 0x0 PUSH1 0x40 DUP3 ADD SWAP1 POP PUSH3 0x4B7 PUSH1 0x0 DUP4 ADD DUP5 PUSH3 0x43D JUMP JUMPDEST SWAP3 SWAP2 POP POP JUMP JUMPDEST PUSH1 0x0 DUP1 REVERT JUMPDEST PUSH3 0x4CD DUP2 PUSH3 0x2EC JUMP JUMPDEST DUP2 EQ PUSH3 0x4D9 JUMPI PUSH1 0x0 DUP1 REVERT JUMPDEST POP JUMP JUMPDEST PUSH1 0x0 DUP2 MLOAD SWAP1 POP PUSH3 0x4ED DUP2 PUSH3 0x4C2 JUMP JUMPDEST SWAP3 SWAP2 POP POP JUMP JUMPDEST PUSH1 0x0 PUSH1 0x20 DUP3 DUP5 SUB SLT ISZERO PUSH3 0x50C JUMPI PUSH3 0x50B PUSH3 0x4BD JUMP JUMPDEST JUMPDEST PUSH1 0x0 PUSH3 0x51C DUP5 DUP3 DUP6 ADD PUSH3 0x4DC JUMP JUMPDEST SWAP2 POP POP SWAP3 SWAP2 POP POP JUMP JUMPDEST PUSH32 0x4E487B7100000000000000000000000000000000000000000000000000000000 PUSH1 0x0 MSTORE PUSH1 0x32 PUSH1 0x4 MSTORE PUSH1 0x24 PUSH1 0x0 REVERT JUMPDEST PUSH2 0x275F DUP1 PUSH3 0x564 PUSH1 0x0 CODECOPY PUSH1 0x0 RETURN INVALID PUSH1 0x80 PUSH1 0x40 MSTORE CALLVALUE DUP1 ISZERO PUSH2 0x10 JUMPI PUSH1 0x0 DUP1 REVERT JUMPDEST POP PUSH1 0x4 CALLDATASIZE LT PUSH2 0xA9 JUMPI PUSH1 0x0 CALLDATALOAD PUSH1 0xE0 SHR DUP1 PUSH4 0x8DA5CB5B GT PUSH2 0x71 JUMPI DUP1 PUSH4 0x8DA5CB5B EQ PUSH2 0x154 JUMPI DUP1 PUSH4 0xA81D9BCC EQ PUSH2 0x172 JUMPI DUP1 PUSH4 0xB7202434 EQ PUSH2 0x190 JUMPI DUP1 PUSH4 0xEBF0C717 EQ PUSH2 0x1C0 JUMPI DUP1 PUSH4 0xF2FDE38B EQ PUSH2 0x1DE JUMPI DUP1 PUSH4 0xF716E5ED EQ PUSH2 0x1FA JUMPI PUSH2 0xA9 JUMP JUMPDEST DUP1 PUSH4 0x2986C0E5 EQ PUSH2 0xAE JUMPI DUP1 PUSH4 0x2FA8EA6D EQ PUSH2 0xCC JUMPI DUP1 PUSH4 0x43753B4D EQ PUSH2 0xFC JUMPI DUP1 PUSH4 0x715018A6 EQ PUSH2 0x12C JUMPI DUP1 PUSH4 0x8ABE5593 EQ PUSH2 0x136 JUMPI JUMPDEST PUSH1 0x0 DUP1 REVERT JUMPDEST PUSH2 0xB6 PUSH2 0x22A JUMP JUMPDEST PUSH1 0x40 MLOAD PUSH2 0xC3 SWAP2 SWAP1 PUSH2 0x1939 JUMP JUMPDEST PUSH1 0x40 MLOAD DUP1 SWAP2 SUB SWAP1 RETURN JUMPDEST PUSH2 0xE6 PUSH1 0x4 DUP1 CALLDATASIZE SUB DUP2 ADD SWAP1 PUSH2 0xE1 SWAP2 SWAP1 PUSH2 0x1C38 JUMP JUMPDEST PUSH2 0x230 JUMP JUMPDEST PUSH1 0x40 MLOAD PUSH2 0xF3 SWAP2 SWAP1 PUSH2 0x1CBC JUMP JUMPDEST PUSH1 0x40 MLOAD DUP1 SWAP2 SUB SWAP1 RETURN JUMPDEST PUSH2 0x116 PUSH1 0x4 DUP1 CALLDATASIZE SUB DUP2 ADD SWAP1 PUSH2 0x111 SWAP2 SWAP1 PUSH2 0x1C38 JUMP JUMPDEST PUSH2 0x248 JUMP JUMPDEST PUSH1 0x40 MLOAD PUSH2 0x123 SWAP2 SWAP1 PUSH2 0x1CBC JUMP JUMPDEST PUSH1 0x40 MLOAD DUP1 SWAP2 SUB SWAP1 RETURN JUMPDEST PUSH2 0x134 PUSH2 0x4C1 JUMP JUMPDEST STOP JUMPDEST PUSH2 0x13E PUSH2 0x4D5 JUMP JUMPDEST PUSH1 0x40 MLOAD PUSH2 0x14B SWAP2 SWAP1 PUSH2 0x1939 JUMP JUMPDEST PUSH1 0x40 MLOAD DUP1 SWAP2 SUB SWAP1 RETURN JUMPDEST PUSH2 0x15C PUSH2 0x4E2 JUMP JUMPDEST PUSH1 0x40 MLOAD PUSH2 0x169 SWAP2 SWAP1 PUSH2 0x1D18 JUMP JUMPDEST PUSH1 0x40 MLOAD DUP1 SWAP2 SUB SWAP1 RETURN JUMPDEST PUSH2 0x17A PUSH2 0x50B JUMP JUMPDEST PUSH1 0x40 MLOAD PUSH2 0x187 SWAP2 SWAP1 PUSH2 0x1DF1 JUMP JUMPDEST PUSH1 0x40 MLOAD DUP1 SWAP2 SUB SWAP1 RETURN JUMPDEST PUSH2 0x1AA PUSH1 0x4 DUP1 CALLDATASIZE SUB DUP2 ADD SWAP1 PUSH2 0x1A5 SWAP2 SWAP1 PUSH2 0x1E13 JUMP JUMPDEST PUSH2 0x563 JUMP JUMPDEST PUSH1 0x40 MLOAD PUSH2 0x1B7 SWAP2 SWAP1 PUSH2 0x1939 JUMP JUMPDEST PUSH1 0x40 MLOAD DUP1 SWAP2 SUB SWAP1 RETURN JUMPDEST PUSH2 0x1C8 PUSH2 0x7E2 JUMP JUMPDEST PUSH1 0x40 MLOAD PUSH2 0x1D5 SWAP2 SWAP1 PUSH2 0x1939 JUMP JUMPDEST PUSH1 0x40 MLOAD DUP1 SWAP2 SUB SWAP1 RETURN JUMPDEST PUSH2 0x1F8 PUSH1 0x4 DUP1 CALLDATASIZE SUB DUP2 ADD SWAP1 PUSH2 0x1F3 SWAP2 SWAP1 PUSH2 0x1E6C JUMP JUMPDEST PUSH2 0x7E8 JUMP JUMPDEST STOP JUMPDEST PUSH2 0x214 PUSH1 0x4 DUP1 CALLDATASIZE SUB DUP2 ADD SWAP1 PUSH2 0x20F SWAP2 SWAP1 PUSH2 0x1E13 JUMP JUMPDEST PUSH2 0x86B JUMP JUMPDEST PUSH1 0x40 MLOAD PUSH2 0x221 SWAP2 SWAP1 PUSH2 0x1939 JUMP JUMPDEST PUSH1 0x40 MLOAD DUP1 SWAP2 SUB SWAP1 RETURN JUMPDEST PUSH1 0x2 SLOAD DUP2 JUMP JUMPDEST PUSH1 0x0 PUSH2 0x23E DUP6 DUP6 DUP6 DUP6 PUSH2 0x248 JUMP JUMPDEST SWAP1 POP SWAP5 SWAP4 POP POP POP POP JUMP JUMPDEST PUSH1 0x0 PUSH2 0x252 PUSH2 0x17DE JUMP JUMPDEST PUSH1 0x40 MLOAD DUP1 PUSH1 0x40 ADD PUSH1 0x40 MSTORE DUP1 DUP8 PUSH1 0x0 PUSH1 0x2 DUP2 LT PUSH2 0x271 JUMPI PUSH2 0x270 PUSH2 0x1E99 JUMP JUMPDEST JUMPDEST PUSH1 0x20 MUL ADD MLOAD DUP2 MSTORE PUSH1 0x20 ADD DUP8 PUSH1 0x1 PUSH1 0x2 DUP2 LT PUSH2 0x28F JUMPI PUSH2 0x28E PUSH2 0x1E99 JUMP JUMPDEST JUMPDEST PUSH1 0x20 MUL ADD MLOAD DUP2 MSTORE POP DUP2 PUSH1 0x0 ADD DUP2 SWAP1 MSTORE POP PUSH1 0x40 MLOAD DUP1 PUSH1 0x40 ADD PUSH1 0x40 MSTORE DUP1 PUSH1 0x40 MLOAD DUP1 PUSH1 0x40 ADD PUSH1 0x40 MSTORE DUP1 DUP9 PUSH1 0x0 PUSH1 0x2 DUP2 LT PUSH2 0x2C9 JUMPI PUSH2 0x2C8 PUSH2 0x1E99 JUMP JUMPDEST JUMPDEST PUSH1 0x20 MUL ADD MLOAD PUSH1 0x0 PUSH1 0x2 DUP2 LT PUSH2 0x2E1 JUMPI PUSH2 0x2E0 PUSH2 0x1E99 JUMP JUMPDEST JUMPDEST PUSH1 0x20 MUL ADD MLOAD DUP2 MSTORE PUSH1 0x20 ADD DUP9 PUSH1 0x0 PUSH1 0x2 DUP2 LT PUSH2 0x2FF JUMPI PUSH2 0x2FE PUSH2 0x1E99 JUMP JUMPDEST JUMPDEST PUSH1 0x20 MUL ADD MLOAD PUSH1 0x1 PUSH1 0x2 DUP2 LT PUSH2 0x317 JUMPI PUSH2 0x316 PUSH2 0x1E99 JUMP JUMPDEST JUMPDEST PUSH1 0x20 MUL ADD MLOAD DUP2 MSTORE POP DUP2 MSTORE PUSH1 0x20 ADD PUSH1 0x40 MLOAD DUP1 PUSH1 0x40 ADD PUSH1 0x40 MSTORE DUP1 DUP9 PUSH1 0x1 PUSH1 0x2 DUP2 LT PUSH2 0x343 JUMPI PUSH2 0x342 PUSH2 0x1E99 JUMP JUMPDEST JUMPDEST PUSH1 0x20 MUL ADD MLOAD PUSH1 0x0 PUSH1 0x2 DUP2 LT PUSH2 0x35B JUMPI PUSH2 0x35A PUSH2 0x1E99 JUMP JUMPDEST JUMPDEST PUSH1 0x20 MUL ADD MLOAD DUP2 MSTORE PUSH1 0x20 ADD DUP9 PUSH1 0x1 PUSH1 0x2 DUP2 LT PUSH2 0x379 JUMPI PUSH2 0x378 PUSH2 0x1E99 JUMP JUMPDEST JUMPDEST PUSH1 0x20 MUL ADD MLOAD PUSH1 0x1 PUSH1 0x2 DUP2 LT PUSH2 0x391 JUMPI PUSH2 0x390 PUSH2 0x1E99 JUMP JUMPDEST JUMPDEST PUSH1 0x20 MUL ADD MLOAD DUP2 MSTORE POP DUP2 MSTORE POP DUP2 PUSH1 0x20 ADD DUP2 SWAP1 MSTORE POP PUSH1 0x40 MLOAD DUP1 PUSH1 0x40 ADD PUSH1 0x40 MSTORE DUP1 DUP6 PUSH1 0x0 PUSH1 0x2 DUP2 LT PUSH2 0x3C3 JUMPI PUSH2 0x3C2 PUSH2 0x1E99 JUMP JUMPDEST JUMPDEST PUSH1 0x20 MUL ADD MLOAD DUP2 MSTORE PUSH1 0x20 ADD DUP6 PUSH1 0x1 PUSH1 0x2 DUP2 LT PUSH2 0x3E1 JUMPI PUSH2 0x3E0 PUSH2 0x1E99 JUMP JUMPDEST JUMPDEST PUSH1 0x20 MUL ADD MLOAD DUP2 MSTORE POP DUP2 PUSH1 0x40 ADD DUP2 SWAP1 MSTORE POP PUSH1 0x0 PUSH1 0x1 PUSH8 0xFFFFFFFFFFFFFFFF DUP2 GT ISZERO PUSH2 0x40E JUMPI PUSH2 0x40D PUSH2 0x1979 JUMP JUMPDEST JUMPDEST PUSH1 0x40 MLOAD SWAP1 DUP1 DUP3 MSTORE DUP1 PUSH1 0x20 MUL PUSH1 0x20 ADD DUP3 ADD PUSH1 0x40 MSTORE DUP1 ISZERO PUSH2 0x43C JUMPI DUP2 PUSH1 0x20 ADD PUSH1 0x20 DUP3 MUL DUP1 CALLDATASIZE DUP4 CALLDATACOPY DUP1 DUP3 ADD SWAP2 POP POP SWAP1 POP JUMPDEST POP SWAP1 POP PUSH1 0x0 JUMPDEST PUSH1 0x1 DUP2 LT ISZERO PUSH2 0x495 JUMPI DUP5 DUP2 PUSH1 0x1 DUP2 LT PUSH2 0x45E JUMPI PUSH2 0x45D PUSH2 0x1E99 JUMP JUMPDEST JUMPDEST PUSH1 0x20 MUL ADD MLOAD DUP3 DUP3 DUP2 MLOAD DUP2 LT PUSH2 0x476 JUMPI PUSH2 0x475 PUSH2 0x1E99 JUMP JUMPDEST JUMPDEST PUSH1 0x20 MUL PUSH1 0x20 ADD ADD DUP2 DUP2 MSTORE POP POP DUP1 DUP1 PUSH2 0x48D SWAP1 PUSH2 0x1EF7 JUMP JUMPDEST SWAP2 POP POP PUSH2 0x442 JUMP JUMPDEST POP PUSH1 0x0 PUSH2 0x4A2 DUP3 DUP5 PUSH2 0x893 JUMP JUMPDEST SUB PUSH2 0x4B2 JUMPI PUSH1 0x1 SWAP3 POP POP POP PUSH2 0x4B9 JUMP JUMPDEST PUSH1 0x0 SWAP3 POP POP POP JUMPDEST SWAP5 SWAP4 POP POP POP POP JUMP JUMPDEST PUSH2 0x4C9 PUSH2 0xA86 JUMP JUMPDEST PUSH2 0x4D3 PUSH1 0x0 PUSH2 0xB04 JUMP JUMPDEST JUMP JUMPDEST PUSH1 0x0 PUSH1 0x1 DUP1 SLOAD SWAP1 POP SWAP1 POP SWAP1 JUMP JUMPDEST PUSH1 0x0 DUP1 PUSH1 0x0 SWAP1 SLOAD SWAP1 PUSH2 0x100 EXP SWAP1 DIV PUSH20 0xFFFFFFFFFFFFFFFFFFFFFFFFFFFFFFFFFFFFFFFF AND SWAP1 POP SWAP1 JUMP JUMPDEST PUSH1 0x60 PUSH1 0x1 DUP1 SLOAD DUP1 PUSH1 0x20 MUL PUSH1 0x20 ADD PUSH1 0x40 MLOAD SWAP1 DUP2 ADD PUSH1 0x40 MSTORE DUP1 SWAP3 SWAP2 SWAP1 DUP2 DUP2 MSTORE PUSH1 0x20 ADD DUP3 DUP1 SLOAD DUP1 ISZERO PUSH2 0x559 JUMPI PUSH1 0x20 MUL DUP3 ADD SWAP2 SWAP1 PUSH1 0x0 MSTORE PUSH1 0x20 PUSH1 0x0 KECCAK256 SWAP1 JUMPDEST DUP2 SLOAD DUP2 MSTORE PUSH1 0x20 ADD SWAP1 PUSH1 0x1 ADD SWAP1 DUP1 DUP4 GT PUSH2 0x545 JUMPI JUMPDEST POP POP POP POP POP SWAP1 POP SWAP1 JUMP JUMPDEST PUSH1 0x0 PUSH2 0x56D PUSH2 0xA86 JUMP JUMPDEST PUSH1 0x0 PUSH1 0x3 SWAP1 POP DUP1 PUSH1 0x2 PUSH2 0x580 SWAP2 SWAP1 PUSH2 0x2072 JUMP JUMPDEST PUSH1 0x2 SLOAD LT PUSH2 0x5C3 JUMPI PUSH1 0x40 MLOAD PUSH32 0x8C379A000000000000000000000000000000000000000000000000000000000 DUP2 MSTORE PUSH1 0x4 ADD PUSH2 0x5BA SWAP1 PUSH2 0x2140 JUMP JUMPDEST PUSH1 0x40 MLOAD DUP1 SWAP2 SUB SWAP1 REVERT JUMPDEST DUP3 PUSH1 0x1 PUSH1 0x2 SLOAD DUP2 SLOAD DUP2 LT PUSH2 0x5DA JUMPI PUSH2 0x5D9 PUSH2 0x1E99 JUMP JUMPDEST JUMPDEST SWAP1 PUSH1 0x0 MSTORE PUSH1 0x20 PUSH1 0x0 KECCAK256 ADD DUP2 SWAP1 SSTORE POP PUSH1 0x0 PUSH1 0x2 SLOAD SWAP1 POP PUSH1 0x0 JUMPDEST DUP3 DUP2 LT ISZERO PUSH2 0x768 JUMPI PUSH1 0x0 PUSH1 0x2 DUP4 PUSH2 0x609 SWAP2 SWAP1 PUSH2 0x218F JUMP JUMPDEST SWAP1 POP PUSH1 0x0 DUP2 DUP5 PUSH2 0x619 SWAP2 SWAP1 PUSH2 0x21C0 JUMP JUMPDEST SWAP1 POP PUSH1 0x0 DUP3 PUSH1 0x1 DUP7 PUSH2 0x62B SWAP2 SWAP1 PUSH2 0x21F4 JUMP JUMPDEST PUSH2 0x635 SWAP2 SWAP1 PUSH2 0x21C0 JUMP JUMPDEST SWAP1 POP PUSH1 0x2 DUP4 DUP7 PUSH2 0x645 SWAP2 SWAP1 PUSH2 0x21C0 JUMP JUMPDEST PUSH2 0x64F SWAP2 SWAP1 PUSH2 0x2228 JUMP JUMPDEST DUP7 PUSH1 0x2 PUSH2 0x65C SWAP2 SWAP1 PUSH2 0x2072 JUMP JUMPDEST PUSH2 0x666 SWAP2 SWAP1 PUSH2 0x21F4 JUMP JUMPDEST SWAP5 POP PUSH20 0x0 PUSH4 0x29A5F2F6 PUSH1 0x40 MLOAD DUP1 PUSH1 0x40 ADD PUSH1 0x40 MSTORE DUP1 PUSH1 0x1 DUP7 DUP2 SLOAD DUP2 LT PUSH2 0x6A1 JUMPI PUSH2 0x6A0 PUSH2 0x1E99 JUMP JUMPDEST JUMPDEST SWAP1 PUSH1 0x0 MSTORE PUSH1 0x20 PUSH1 0x0 KECCAK256 ADD SLOAD DUP2 MSTORE PUSH1 0x20 ADD PUSH1 0x1 DUP6 DUP2 SLOAD DUP2 LT PUSH2 0x6C5 JUMPI PUSH2 0x6C4 PUSH2 0x1E99 JUMP JUMPDEST JUMPDEST SWAP1 PUSH1 0x0 MSTORE PUSH1 0x20 PUSH1 0x0 KECCAK256 ADD SLOAD DUP2 MSTORE POP PUSH1 0x40 MLOAD DUP3 PUSH4 0xFFFFFFFF AND PUSH1 0xE0 SHL DUP2 MSTORE PUSH1 0x4 ADD PUSH2 0x6EF SWAP2 SWAP1 PUSH2 0x2304 JUMP JUMPDEST PUSH1 0x20 PUSH1 0x40 MLOAD DUP1 DUP4 SUB DUP2 DUP7 GAS DELEGATECALL ISZERO DUP1 ISZERO PUSH2 0x70C JUMPI RETURNDATASIZE PUSH1 0x0 DUP1 RETURNDATACOPY RETURNDATASIZE PUSH1 0x0 REVERT JUMPDEST POP POP POP POP PUSH1 0x40 MLOAD RETURNDATASIZE PUSH1 0x1F NOT PUSH1 0x1F DUP3 ADD AND DUP3 ADD DUP1 PUSH1 0x40 MSTORE POP DUP2 ADD SWAP1 PUSH2 0x730 SWAP2 SWAP1 PUSH2 0x2334 JUMP JUMPDEST PUSH1 0x1 DUP7 DUP2 SLOAD DUP2 LT PUSH2 0x744 JUMPI PUSH2 0x743 PUSH2 0x1E99 JUMP JUMPDEST JUMPDEST SWAP1 PUSH1 0x0 MSTORE PUSH1 0x20 PUSH1 0x0 KECCAK256 ADD DUP2 SWAP1 SSTORE POP POP POP POP DUP1 DUP1 PUSH2 0x760 SWAP1 PUSH2 0x1EF7 JUMP JUMPDEST SWAP2 POP POP PUSH2 0x5F2 JUMP JUMPDEST POP PUSH1 0x1 PUSH1 0x2 PUSH1 0x1 DUP5 PUSH2 0x77A SWAP2 SWAP1 PUSH2 0x21F4 JUMP JUMPDEST PUSH1 0x2 PUSH2 0x786 SWAP2 SWAP1 PUSH2 0x2072 JUMP JUMPDEST PUSH2 0x790 SWAP2 SWAP1 PUSH2 0x21C0 JUMP JUMPDEST DUP2 SLOAD DUP2 LT PUSH2 0x7A1 JUMPI PUSH2 0x7A0 PUSH2 0x1E99 JUMP JUMPDEST JUMPDEST SWAP1 PUSH1 0x0 MSTORE PUSH1 0x20 PUSH1 0x0 KECCAK256 ADD SLOAD PUSH1 0x3 DUP2 SWAP1 SSTORE POP PUSH1 0x2 PUSH1 0x0 DUP2 SLOAD DUP1 SWAP3 SWAP2 SWAP1 PUSH2 0x7C5 SWAP1 PUSH2 0x1EF7 JUMP JUMPDEST SWAP2 SWAP1 POP SSTORE POP PUSH1 0x1 PUSH1 0x2 SLOAD PUSH2 0x7D9 SWAP2 SWAP1 PUSH2 0x21C0 JUMP JUMPDEST SWAP3 POP POP POP SWAP2 SWAP1 POP JUMP JUMPDEST PUSH1 0x3 SLOAD DUP2 JUMP JUMPDEST PUSH2 0x7F0 PUSH2 0xA86 JUMP JUMPDEST PUSH1 0x0 PUSH20 0xFFFFFFFFFFFFFFFFFFFFFFFFFFFFFFFFFFFFFFFF AND DUP2 PUSH20 0xFFFFFFFFFFFFFFFFFFFFFFFFFFFFFFFFFFFFFFFF AND SUB PUSH2 0x85F JUMPI PUSH1 0x40 MLOAD PUSH32 0x8C379A000000000000000000000000000000000000000000000000000000000 DUP2 MSTORE PUSH1 0x4 ADD PUSH2 0x856 SWAP1 PUSH2 0x23D3 JUMP JUMPDEST PUSH1 0x40 MLOAD DUP1 SWAP2 SUB SWAP1 REVERT JUMPDEST PUSH2 0x868 DUP2 PUSH2 0xB04 JUMP JUMPDEST POP JUMP JUMPDEST PUSH1 0x0 PUSH1 0x1 DUP3 DUP2 SLOAD DUP2 LT PUSH2 0x881 JUMPI PUSH2 0x880 PUSH2 0x1E99 JUMP JUMPDEST JUMPDEST SWAP1 PUSH1 0x0 MSTORE PUSH1 0x20 PUSH1 0x0 KECCAK256 ADD SLOAD SWAP1 POP SWAP2 SWAP1 POP JUMP JUMPDEST PUSH1 0x0 DUP1 PUSH32 0x30644E72E131A029B85045B68181585D2833E84879B9709143E1F593F0000001 SWAP1 POP PUSH1 0x0 PUSH2 0x8C3 PUSH2 0xBC8 JUMP JUMPDEST SWAP1 POP DUP1 PUSH1 0x80 ADD MLOAD MLOAD PUSH1 0x1 DUP7 MLOAD PUSH2 0x8D9 SWAP2 SWAP1 PUSH2 0x21F4 JUMP JUMPDEST EQ PUSH2 0x919 JUMPI PUSH1 0x40 MLOAD PUSH32 0x8C379A000000000000000000000000000000000000000000000000000000000 DUP2 MSTORE PUSH1 0x4 ADD PUSH2 0x910 SWAP1 PUSH2 0x243F JUMP JUMPDEST PUSH1 0x40 MLOAD DUP1 SWAP2 SUB SWAP1 REVERT JUMPDEST PUSH1 0x0 PUSH1 0x40 MLOAD DUP1 PUSH1 0x40 ADD PUSH1 0x40 MSTORE DUP1 PUSH1 0x0 DUP2 MSTORE PUSH1 0x20 ADD PUSH1 0x0 DUP2 MSTORE POP SWAP1 POP PUSH1 0x0 JUMPDEST DUP7 MLOAD DUP2 LT ISZERO PUSH2 0xA08 JUMPI DUP4 DUP8 DUP3 DUP2 MLOAD DUP2 LT PUSH2 0x954 JUMPI PUSH2 0x953 PUSH2 0x1E99 JUMP JUMPDEST JUMPDEST PUSH1 0x20 MUL PUSH1 0x20 ADD ADD MLOAD LT PUSH2 0x99C JUMPI PUSH1 0x40 MLOAD PUSH32 0x8C379A000000000000000000000000000000000000000000000000000000000 DUP2 MSTORE PUSH1 0x4 ADD PUSH2 0x993 SWAP1 PUSH2 0x24AB JUMP JUMPDEST PUSH1 0x40 MLOAD DUP1 SWAP2 SUB SWAP1 REVERT JUMPDEST PUSH2 0x9F3 DUP3 PUSH2 0x9EE DUP6 PUSH1 0x80 ADD MLOAD PUSH1 0x1 DUP6 PUSH2 0x9B5 SWAP2 SWAP1 PUSH2 0x21F4 JUMP JUMPDEST DUP2 MLOAD DUP2 LT PUSH2 0x9C6 JUMPI PUSH2 0x9C5 PUSH2 0x1E99 JUMP JUMPDEST JUMPDEST PUSH1 0x20 MUL PUSH1 0x20 ADD ADD MLOAD DUP11 DUP6 DUP2 MLOAD DUP2 LT PUSH2 0x9E1 JUMPI PUSH2 0x9E0 PUSH2 0x1E99 JUMP JUMPDEST JUMPDEST PUSH1 0x20 MUL PUSH1 0x20 ADD ADD MLOAD PUSH2 0xFCC JUMP JUMPDEST PUSH2 0x10A4 JUMP JUMPDEST SWAP2 POP DUP1 DUP1 PUSH2 0xA00 SWAP1 PUSH2 0x1EF7 JUMP JUMPDEST SWAP2 POP POP PUSH2 0x937 JUMP JUMPDEST POP PUSH2 0xA32 DUP2 DUP4 PUSH1 0x80 ADD MLOAD PUSH1 0x0 DUP2 MLOAD DUP2 LT PUSH2 0xA25 JUMPI PUSH2 0xA24 PUSH2 0x1E99 JUMP JUMPDEST JUMPDEST PUSH1 0x20 MUL PUSH1 0x20 ADD ADD MLOAD PUSH2 0x10A4 JUMP JUMPDEST SWAP1 POP PUSH2 0xA68 PUSH2 0xA44 DUP7 PUSH1 0x0 ADD MLOAD PUSH2 0x11A2 JUMP JUMPDEST DUP7 PUSH1 0x20 ADD MLOAD DUP5 PUSH1 0x0 ADD MLOAD DUP6 PUSH1 0x20 ADD MLOAD DUP6 DUP8 PUSH1 0x40 ADD MLOAD DUP12 PUSH1 0x40 ADD MLOAD DUP10 PUSH1 0x60 ADD MLOAD PUSH2 0x1247 JUMP JUMPDEST PUSH2 0xA78 JUMPI PUSH1 0x1 SWAP4 POP POP POP POP PUSH2 0xA80 JUMP JUMPDEST PUSH1 0x0 SWAP4 POP POP POP POP JUMPDEST SWAP3 SWAP2 POP POP JUMP JUMPDEST PUSH2 0xA8E PUSH2 0x1414 JUMP JUMPDEST PUSH20 0xFFFFFFFFFFFFFFFFFFFFFFFFFFFFFFFFFFFFFFFF AND PUSH2 0xAAC PUSH2 0x4E2 JUMP JUMPDEST PUSH20 0xFFFFFFFFFFFFFFFFFFFFFFFFFFFFFFFFFFFFFFFF AND EQ PUSH2 0xB02 JUMPI PUSH1 0x40 MLOAD PUSH32 0x8C379A000000000000000000000000000000000000000000000000000000000 DUP2 MSTORE PUSH1 0x4 ADD PUSH2 0xAF9 SWAP1 PUSH2 0x2517 JUMP JUMPDEST PUSH1 0x40 MLOAD DUP1 SWAP2 SUB SWAP1 REVERT JUMPDEST JUMP JUMPDEST PUSH1 0x0 DUP1 PUSH1 0x0 SWAP1 SLOAD SWAP1 PUSH2 0x100 EXP SWAP1 DIV PUSH20 0xFFFFFFFFFFFFFFFFFFFFFFFFFFFFFFFFFFFFFFFF AND SWAP1 POP DUP2 PUSH1 0x0 DUP1 PUSH2 0x100 EXP DUP2 SLOAD DUP2 PUSH20 0xFFFFFFFFFFFFFFFFFFFFFFFFFFFFFFFFFFFFFFFF MUL NOT AND SWAP1 DUP4 PUSH20 0xFFFFFFFFFFFFFFFFFFFFFFFFFFFFFFFFFFFFFFFF AND MUL OR SWAP1 SSTORE POP DUP2 PUSH20 0xFFFFFFFFFFFFFFFFFFFFFFFFFFFFFFFFFFFFFFFF AND DUP2 PUSH20 0xFFFFFFFFFFFFFFFFFFFFFFFFFFFFFFFFFFFFFFFF AND PUSH32 0x8BE0079C531659141344CD1FD0A4F28419497F9722A3DAAFE3B4186F6B6457E0 PUSH1 0x40 MLOAD PUSH1 0x40 MLOAD DUP1 SWAP2 SUB SWAP1 LOG3 POP POP JUMP JUMPDEST PUSH2 0xBD0 PUSH2 0x1811 JUMP JUMPDEST PUSH1 0x40 MLOAD DUP1 PUSH1 0x40 ADD PUSH1 0x40 MSTORE DUP1 PUSH32 0x2D4D9AA7E302D9DF41749D5507949D05DBEA33FBB16C643B22F599A2BE6DF2E2 DUP2 MSTORE PUSH1 0x20 ADD PUSH32 0x14BEDD503C37CEB061D8EC60209FE345CE89830A19230301F076CAFF004D1926 DUP2 MSTORE POP DUP2 PUSH1 0x0 ADD DUP2 SWAP1 MSTORE POP PUSH1 0x40 MLOAD DUP1 PUSH1 0x40 ADD PUSH1 0x40 MSTORE DUP1 PUSH1 0x40 MLOAD DUP1 PUSH1 0x40 ADD PUSH1 0x40 MSTORE DUP1 PUSH32 0x967032FCBF776D1AFC985F88877F182D38480A653F2DECAA9794CBC3BF3060C DUP2 MSTORE PUSH1 0x20 ADD PUSH32 0xE187847AD4C798374D0D6732BF501847DD68BC0E071241E0213BC7FC13DB7AB DUP2 MSTORE POP DUP2 MSTORE PUSH1 0x20 ADD PUSH1 0x40 MLOAD DUP1 PUSH1 0x40 ADD PUSH1 0x40 MSTORE DUP1 PUSH32 0x304CFBD1E08A704A99F5E847D93F8C3CAAFDDEC46B7A0D379DA69A4D112346A7 DUP2 MSTORE PUSH1 0x20 ADD PUSH32 0x1739C1B1A457A8C7313123D24D2F9192F896B7C63EEA05A9D57F06547AD0CEC8 DUP2 MSTORE POP DUP2 MSTORE POP DUP2 PUSH1 0x20 ADD DUP2 SWAP1 MSTORE POP PUSH1 0x40 MLOAD DUP1 PUSH1 0x40 ADD PUSH1 0x40 MSTORE DUP1 PUSH1 0x40 MLOAD DUP1 PUSH1 0x40 ADD PUSH1 0x40 MSTORE DUP1 PUSH32 0x198E9393920D483A7260BFB731FB5D25F1AA493335A9E71297E485B7AEF312C2 DUP2 MSTORE PUSH1 0x20 ADD PUSH32 0x1800DEEF121F1E76426A00665E5C4479674322D4F75EDADD46DEBD5CD992F6ED DUP2 MSTORE POP DUP2 MSTORE PUSH1 0x20 ADD PUSH1 0x40 MLOAD DUP1 PUSH1 0x40 ADD PUSH1 0x40 MSTORE DUP1 PUSH32 0x90689D0585FF075EC9E99AD690C3395BC4B313370B38EF355ACDADCD122975B DUP2 MSTORE PUSH1 0x20 ADD PUSH32 0x12C85EA5DB8C6DEB4AAB71808DCB408FE3D1E7690C43D37B4CE6CC0166FA7DAA DUP2 MSTORE POP DUP2 MSTORE POP DUP2 PUSH1 0x40 ADD DUP2 SWAP1 MSTORE POP PUSH1 0x40 MLOAD DUP1 PUSH1 0x40 ADD PUSH1 0x40 MSTORE DUP1 PUSH1 0x40 MLOAD DUP1 PUSH1 0x40 ADD PUSH1 0x40 MSTORE DUP1 PUSH32 0x2339D8151E9A2D71F72853D0FD12DEBCC87D6D84A6AA92C3C013468D89C11597 DUP2 MSTORE PUSH1 0x20 ADD PUSH32 0xA66F1B11B89D5BFD3985AFDA16A639B1CB62C09ACE32EECE518BFFD3D06789C DUP2 MSTORE POP DUP2 MSTORE PUSH1 0x20 ADD PUSH1 0x40 MLOAD DUP1 PUSH1 0x40 ADD PUSH1 0x40 MSTORE DUP1 PUSH32 0x18775CEA22A5B66E8FD3F32FAD682A1DC6A6ADC4635A56FA77BA91D96D513FBE DUP2 MSTORE PUSH1 0x20 ADD PUSH32 0xF9D114437DBDE311E2CE2EDFD669704948249207182A836C39CE22BCA118EFB DUP2 MSTORE POP DUP2 MSTORE POP DUP2 PUSH1 0x60 ADD DUP2 SWAP1 MSTORE POP PUSH1 0x2 PUSH8 0xFFFFFFFFFFFFFFFF DUP2 GT ISZERO PUSH2 0xE97 JUMPI PUSH2 0xE96 PUSH2 0x1979 JUMP JUMPDEST JUMPDEST PUSH1 0x40 MLOAD SWAP1 DUP1 DUP3 MSTORE DUP1 PUSH1 0x20 MUL PUSH1 0x20 ADD DUP3 ADD PUSH1 0x40 MSTORE DUP1 ISZERO PUSH2 0xED0 JUMPI DUP2 PUSH1 0x20 ADD JUMPDEST PUSH2 0xEBD PUSH2 0x1858 JUMP JUMPDEST DUP2 MSTORE PUSH1 0x20 ADD SWAP1 PUSH1 0x1 SWAP1 SUB SWAP1 DUP2 PUSH2 0xEB5 JUMPI SWAP1 POP JUMPDEST POP DUP2 PUSH1 0x80 ADD DUP2 SWAP1 MSTORE POP PUSH1 0x40 MLOAD DUP1 PUSH1 0x40 ADD PUSH1 0x40 MSTORE DUP1 PUSH32 0x83298211F74D84C8B2C4B823342156125E6704673B72FE73E1E5E8AB29A3B95 DUP2 MSTORE PUSH1 0x20 ADD PUSH32 0x42379D9F61C0661D02ADB7EE49EA69DB2D5F4160834D2EA24C1013BD7226C2C DUP2 MSTORE POP DUP2 PUSH1 0x80 ADD MLOAD PUSH1 0x0 DUP2 MLOAD DUP2 LT PUSH2 0xF46 JUMPI PUSH2 0xF45 PUSH2 0x1E99 JUMP JUMPDEST JUMPDEST PUSH1 0x20 MUL PUSH1 0x20 ADD ADD DUP2 SWAP1 MSTORE POP PUSH1 0x40 MLOAD DUP1 PUSH1 0x40 ADD PUSH1 0x40 MSTORE DUP1 PUSH32 0x18B7AE6D147782EDFFC93647DB3368D27D540047B3CD8E01C8B516E8D3962326 DUP2 MSTORE PUSH1 0x20 ADD PUSH32 0x2883C536B52D4BEB2CD53AB664CC6879D70D209C21E152667BB046318F9B2EA5 DUP2 MSTORE POP DUP2 PUSH1 0x80 ADD MLOAD PUSH1 0x1 DUP2 MLOAD DUP2 LT PUSH2 0xFBE JUMPI PUSH2 0xFBD PUSH2 0x1E99 JUMP JUMPDEST JUMPDEST PUSH1 0x20 MUL PUSH1 0x20 ADD ADD DUP2 SWAP1 MSTORE POP SWAP1 JUMP JUMPDEST PUSH2 0xFD4 PUSH2 0x1858 JUMP JUMPDEST PUSH2 0xFDC PUSH2 0x1872 JUMP JUMPDEST DUP4 PUSH1 0x0 ADD MLOAD DUP2 PUSH1 0x0 PUSH1 0x3 DUP2 LT PUSH2 0xFF5 JUMPI PUSH2 0xFF4 PUSH2 0x1E99 JUMP JUMPDEST JUMPDEST PUSH1 0x20 MUL ADD DUP2 DUP2 MSTORE POP POP DUP4 PUSH1 0x20 ADD MLOAD DUP2 PUSH1 0x1 PUSH1 0x3 DUP2 LT PUSH2 0x1017 JUMPI PUSH2 0x1016 PUSH2 0x1E99 JUMP JUMPDEST JUMPDEST PUSH1 0x20 MUL ADD DUP2 DUP2 MSTORE POP POP DUP3 DUP2 PUSH1 0x2 PUSH1 0x3 DUP2 LT PUSH2 0x1035 JUMPI PUSH2 0x1034 PUSH2 0x1E99 JUMP JUMPDEST JUMPDEST PUSH1 0x20 MUL ADD DUP2 DUP2 MSTORE POP POP PUSH1 0x0 PUSH1 0x60 DUP4 PUSH1 0x80 DUP5 PUSH1 0x7 PUSH2 0x7D0 GAS SUB STATICCALL SWAP1 POP DUP1 PUSH1 0x0 DUP2 SUB PUSH2 0x105B JUMPI INVALID JUMPDEST POP DUP1 PUSH2 0x109C JUMPI PUSH1 0x40 MLOAD PUSH32 0x8C379A000000000000000000000000000000000000000000000000000000000 DUP2 MSTORE PUSH1 0x4 ADD PUSH2 0x1093 SWAP1 PUSH2 0x2583 JUMP JUMPDEST PUSH1 0x40 MLOAD DUP1 SWAP2 SUB SWAP1 REVERT JUMPDEST POP POP SWAP3 SWAP2 POP POP JUMP JUMPDEST PUSH2 0x10AC PUSH2 0x1858 JUMP JUMPDEST PUSH2 0x10B4 PUSH2 0x1894 JUMP JUMPDEST DUP4 PUSH1 0x0 ADD MLOAD DUP2 PUSH1 0x0 PUSH1 0x4 DUP2 LT PUSH2 0x10CD JUMPI PUSH2 0x10CC PUSH2 0x1E99 JUMP JUMPDEST JUMPDEST PUSH1 0x20 MUL ADD DUP2 DUP2 MSTORE POP POP DUP4 PUSH1 0x20 ADD MLOAD DUP2 PUSH1 0x1 PUSH1 0x4 DUP2 LT PUSH2 0x10EF JUMPI PUSH2 0x10EE PUSH2 0x1E99 JUMP JUMPDEST JUMPDEST PUSH1 0x20 MUL ADD DUP2 DUP2 MSTORE POP POP DUP3 PUSH1 0x0 ADD MLOAD DUP2 PUSH1 0x2 PUSH1 0x4 DUP2 LT PUSH2 0x1111 JUMPI PUSH2 0x1110 PUSH2 0x1E99 JUMP JUMPDEST JUMPDEST PUSH1 0x20 MUL ADD DUP2 DUP2 MSTORE POP POP DUP3 PUSH1 0x20 ADD MLOAD DUP2 PUSH1 0x3 PUSH1 0x4 DUP2 LT PUSH2 0x1133 JUMPI PUSH2 0x1132 PUSH2 0x1E99 JUMP JUMPDEST JUMPDEST PUSH1 0x20 MUL ADD DUP2 DUP2 MSTORE POP POP PUSH1 0x0 PUSH1 0x60 DUP4 PUSH1 0xC0 DUP5 PUSH1 0x6 PUSH2 0x7D0 GAS SUB STATICCALL SWAP1 POP DUP1 PUSH1 0x0 DUP2 SUB PUSH2 0x1159 JUMPI INVALID JUMPDEST POP DUP1 PUSH2 0x119A JUMPI PUSH1 0x40 MLOAD PUSH32 0x8C379A000000000000000000000000000000000000000000000000000000000 DUP2 MSTORE PUSH1 0x4 ADD PUSH2 0x1191 SWAP1 PUSH2 0x25EF JUMP JUMPDEST PUSH1 0x40 MLOAD DUP1 SWAP2 SUB SWAP1 REVERT JUMPDEST POP POP SWAP3 SWAP2 POP POP JUMP JUMPDEST PUSH2 0x11AA PUSH2 0x1858 JUMP JUMPDEST PUSH1 0x0 PUSH32 0x30644E72E131A029B85045B68181585D97816A916871CA8D3C208C16D87CFD47 SWAP1 POP PUSH1 0x0 DUP4 PUSH1 0x0 ADD MLOAD EQ DUP1 ISZERO PUSH2 0x11E7 JUMPI POP PUSH1 0x0 DUP4 PUSH1 0x20 ADD MLOAD EQ JUMPDEST ISZERO PUSH2 0x120B JUMPI PUSH1 0x40 MLOAD DUP1 PUSH1 0x40 ADD PUSH1 0x40 MSTORE DUP1 PUSH1 0x0 DUP2 MSTORE PUSH1 0x20 ADD PUSH1 0x0 DUP2 MSTORE POP SWAP2 POP POP PUSH2 0x1242 JUMP JUMPDEST PUSH1 0x40 MLOAD DUP1 PUSH1 0x40 ADD PUSH1 0x40 MSTORE DUP1 DUP5 PUSH1 0x0 ADD MLOAD DUP2 MSTORE PUSH1 0x20 ADD DUP3 DUP6 PUSH1 0x20 ADD MLOAD PUSH2 0x1230 SWAP2 SWAP1 PUSH2 0x218F JUMP JUMPDEST DUP4 PUSH2 0x123B SWAP2 SWAP1 PUSH2 0x21C0 JUMP JUMPDEST DUP2 MSTORE POP SWAP2 POP POP JUMPDEST SWAP2 SWAP1 POP JUMP JUMPDEST PUSH1 0x0 DUP1 PUSH1 0x4 PUSH8 0xFFFFFFFFFFFFFFFF DUP2 GT ISZERO PUSH2 0x1265 JUMPI PUSH2 0x1264 PUSH2 0x1979 JUMP JUMPDEST JUMPDEST PUSH1 0x40 MLOAD SWAP1 DUP1 DUP3 MSTORE DUP1 PUSH1 0x20 MUL PUSH1 0x20 ADD DUP3 ADD PUSH1 0x40 MSTORE DUP1 ISZERO PUSH2 0x129E JUMPI DUP2 PUSH1 0x20 ADD JUMPDEST PUSH2 0x128B PUSH2 0x1858 JUMP JUMPDEST DUP2 MSTORE PUSH1 0x20 ADD SWAP1 PUSH1 0x1 SWAP1 SUB SWAP1 DUP2 PUSH2 0x1283 JUMPI SWAP1 POP JUMPDEST POP SWAP1 POP PUSH1 0x0 PUSH1 0x4 PUSH8 0xFFFFFFFFFFFFFFFF DUP2 GT ISZERO PUSH2 0x12BE JUMPI PUSH2 0x12BD PUSH2 0x1979 JUMP JUMPDEST JUMPDEST PUSH1 0x40 MLOAD SWAP1 DUP1 DUP3 MSTORE DUP1 PUSH1 0x20 MUL PUSH1 0x20 ADD DUP3 ADD PUSH1 0x40 MSTORE DUP1 ISZERO PUSH2 0x12F7 JUMPI DUP2 PUSH1 0x20 ADD JUMPDEST PUSH2 0x12E4 PUSH2 0x18B6 JUMP JUMPDEST DUP2 MSTORE PUSH1 0x20 ADD SWAP1 PUSH1 0x1 SWAP1 SUB SWAP1 DUP2 PUSH2 0x12DC JUMPI SWAP1 POP JUMPDEST POP SWAP1 POP DUP11 DUP3 PUSH1 0x0 DUP2 MLOAD DUP2 LT PUSH2 0x130F JUMPI PUSH2 0x130E PUSH2 0x1E99 JUMP JUMPDEST JUMPDEST PUSH1 0x20 MUL PUSH1 0x20 ADD ADD DUP2 SWAP1 MSTORE POP DUP9 DUP3 PUSH1 0x1 DUP2 MLOAD DUP2 LT PUSH2 0x132F JUMPI PUSH2 0x132E PUSH2 0x1E99 JUMP JUMPDEST JUMPDEST PUSH1 0x20 MUL PUSH1 0x20 ADD ADD DUP2 SWAP1 MSTORE POP DUP7 DUP3 PUSH1 0x2 DUP2 MLOAD DUP2 LT PUSH2 0x134F JUMPI PUSH2 0x134E PUSH2 0x1E99 JUMP JUMPDEST JUMPDEST PUSH1 0x20 MUL PUSH1 0x20 ADD ADD DUP2 SWAP1 MSTORE POP DUP5 DUP3 PUSH1 0x3 DUP2 MLOAD DUP2 LT PUSH2 0x136F JUMPI PUSH2 0x136E PUSH2 0x1E99 JUMP JUMPDEST JUMPDEST PUSH1 0x20 MUL PUSH1 0x20 ADD ADD DUP2 SWAP1 MSTORE POP DUP10 DUP2 PUSH1 0x0 DUP2 MLOAD DUP2 LT PUSH2 0x138F JUMPI PUSH2 0x138E PUSH2 0x1E99 JUMP JUMPDEST JUMPDEST PUSH1 0x20 MUL PUSH1 0x20 ADD ADD DUP2 SWAP1 MSTORE POP DUP8 DUP2 PUSH1 0x1 DUP2 MLOAD DUP2 LT PUSH2 0x13AF JUMPI PUSH2 0x13AE PUSH2 0x1E99 JUMP JUMPDEST JUMPDEST PUSH1 0x20 MUL PUSH1 0x20 ADD ADD DUP2 SWAP1 MSTORE POP DUP6 DUP2 PUSH1 0x2 DUP2 MLOAD DUP2 LT PUSH2 0x13CF JUMPI PUSH2 0x13CE PUSH2 0x1E99 JUMP JUMPDEST JUMPDEST PUSH1 0x20 MUL PUSH1 0x20 ADD ADD DUP2 SWAP1 MSTORE POP DUP4 DUP2 PUSH1 0x3 DUP2 MLOAD DUP2 LT PUSH2 0x13EF JUMPI PUSH2 0x13EE PUSH2 0x1E99 JUMP JUMPDEST JUMPDEST PUSH1 0x20 MUL PUSH1 0x20 ADD ADD DUP2 SWAP1 MSTORE POP PUSH2 0x1404 DUP3 DUP3 PUSH2 0x141C JUMP JUMPDEST SWAP3 POP POP POP SWAP9 SWAP8 POP POP POP POP POP POP POP POP JUMP JUMPDEST PUSH1 0x0 CALLER SWAP1 POP SWAP1 JUMP JUMPDEST PUSH1 0x0 DUP2 MLOAD DUP4 MLOAD EQ PUSH2 0x1462 JUMPI PUSH1 0x40 MLOAD PUSH32 0x8C379A000000000000000000000000000000000000000000000000000000000 DUP2 MSTORE PUSH1 0x4 ADD PUSH2 0x1459 SWAP1 PUSH2 0x265B JUMP JUMPDEST PUSH1 0x40 MLOAD DUP1 SWAP2 SUB SWAP1 REVERT JUMPDEST PUSH1 0x0 DUP4 MLOAD SWAP1 POP PUSH1 0x0 PUSH1 0x6 DUP3 PUSH2 0x1477 SWAP2 SWAP1 PUSH2 0x267B JUMP JUMPDEST SWAP1 POP PUSH1 0x0 DUP2 PUSH8 0xFFFFFFFFFFFFFFFF DUP2 GT ISZERO PUSH2 0x1495 JUMPI PUSH2 0x1494 PUSH2 0x1979 JUMP JUMPDEST JUMPDEST PUSH1 0x40 MLOAD SWAP1 DUP1 DUP3 MSTORE DUP1 PUSH1 0x20 MUL PUSH1 0x20 ADD DUP3 ADD PUSH1 0x40 MSTORE DUP1 ISZERO PUSH2 0x14C3 JUMPI DUP2 PUSH1 0x20 ADD PUSH1 0x20 DUP3 MUL DUP1 CALLDATASIZE DUP4 CALLDATACOPY DUP1 DUP3 ADD SWAP2 POP POP SWAP1 POP JUMPDEST POP SWAP1 POP PUSH1 0x0 JUMPDEST DUP4 DUP2 LT ISZERO PUSH2 0x1748 JUMPI DUP7 DUP2 DUP2 MLOAD DUP2 LT PUSH2 0x14E4 JUMPI PUSH2 0x14E3 PUSH2 0x1E99 JUMP JUMPDEST JUMPDEST PUSH1 0x20 MUL PUSH1 0x20 ADD ADD MLOAD PUSH1 0x0 ADD MLOAD DUP3 PUSH1 0x0 PUSH1 0x6 DUP5 PUSH2 0x1500 SWAP2 SWAP1 PUSH2 0x267B JUMP JUMPDEST PUSH2 0x150A SWAP2 SWAP1 PUSH2 0x21F4 JUMP JUMPDEST DUP2 MLOAD DUP2 LT PUSH2 0x151B JUMPI PUSH2 0x151A PUSH2 0x1E99 JUMP JUMPDEST JUMPDEST PUSH1 0x20 MUL PUSH1 0x20 ADD ADD DUP2 DUP2 MSTORE POP POP DUP7 DUP2 DUP2 MLOAD DUP2 LT PUSH2 0x153A JUMPI PUSH2 0x1539 PUSH2 0x1E99 JUMP JUMPDEST JUMPDEST PUSH1 0x20 MUL PUSH1 0x20 ADD ADD MLOAD PUSH1 0x20 ADD MLOAD DUP3 PUSH1 0x1 PUSH1 0x6 DUP5 PUSH2 0x1556 SWAP2 SWAP1 PUSH2 0x267B JUMP JUMPDEST PUSH2 0x1560 SWAP2 SWAP1 PUSH2 0x21F4 JUMP JUMPDEST DUP2 MLOAD DUP2 LT PUSH2 0x1571 JUMPI PUSH2 0x1570 PUSH2 0x1E99 JUMP JUMPDEST JUMPDEST PUSH1 0x20 MUL PUSH1 0x20 ADD ADD DUP2 DUP2 MSTORE POP POP DUP6 DUP2 DUP2 MLOAD DUP2 LT PUSH2 0x1590 JUMPI PUSH2 0x158F PUSH2 0x1E99 JUMP JUMPDEST JUMPDEST PUSH1 0x20 MUL PUSH1 0x20 ADD ADD MLOAD PUSH1 0x0 ADD MLOAD PUSH1 0x0 PUSH1 0x2 DUP2 LT PUSH2 0x15AF JUMPI PUSH2 0x15AE PUSH2 0x1E99 JUMP JUMPDEST JUMPDEST PUSH1 0x20 MUL ADD MLOAD DUP3 PUSH1 0x2 PUSH1 0x6 DUP5 PUSH2 0x15C4 SWAP2 SWAP1 PUSH2 0x267B JUMP JUMPDEST PUSH2 0x15CE SWAP2 SWAP1 PUSH2 0x21F4 JUMP JUMPDEST DUP2 MLOAD DUP2 LT PUSH2 0x15DF JUMPI PUSH2 0x15DE PUSH2 0x1E99 JUMP JUMPDEST JUMPDEST PUSH1 0x20 MUL PUSH1 0x20 ADD ADD DUP2 DUP2 MSTORE POP POP DUP6 DUP2 DUP2 MLOAD DUP2 LT PUSH2 0x15FE JUMPI PUSH2 0x15FD PUSH2 0x1E99 JUMP JUMPDEST JUMPDEST PUSH1 0x20 MUL PUSH1 0x20 ADD ADD MLOAD PUSH1 0x0 ADD MLOAD PUSH1 0x1 PUSH1 0x2 DUP2 LT PUSH2 0x161D JUMPI PUSH2 0x161C PUSH2 0x1E99 JUMP JUMPDEST JUMPDEST PUSH1 0x20 MUL ADD MLOAD DUP3 PUSH1 0x3 PUSH1 0x6 DUP5 PUSH2 0x1632 SWAP2 SWAP1 PUSH2 0x267B JUMP JUMPDEST PUSH2 0x163C SWAP2 SWAP1 PUSH2 0x21F4 JUMP JUMPDEST DUP2 MLOAD DUP2 LT PUSH2 0x164D JUMPI PUSH2 0x164C PUSH2 0x1E99 JUMP JUMPDEST JUMPDEST PUSH1 0x20 MUL PUSH1 0x20 ADD ADD DUP2 DUP2 MSTORE POP POP DUP6 DUP2 DUP2 MLOAD DUP2 LT PUSH2 0x166C JUMPI PUSH2 0x166B PUSH2 0x1E99 JUMP JUMPDEST JUMPDEST PUSH1 0x20 MUL PUSH1 0x20 ADD ADD MLOAD PUSH1 0x20 ADD MLOAD PUSH1 0x0 PUSH1 0x2 DUP2 LT PUSH2 0x168B JUMPI PUSH2 0x168A PUSH2 0x1E99 JUMP JUMPDEST JUMPDEST PUSH1 0x20 MUL ADD MLOAD DUP3 PUSH1 0x4 PUSH1 0x6 DUP5 PUSH2 0x16A0 SWAP2 SWAP1 PUSH2 0x267B JUMP JUMPDEST PUSH2 0x16AA SWAP2 SWAP1 PUSH2 0x21F4 JUMP JUMPDEST DUP2 MLOAD DUP2 LT PUSH2 0x16BB JUMPI PUSH2 0x16BA PUSH2 0x1E99 JUMP JUMPDEST JUMPDEST PUSH1 0x20 MUL PUSH1 0x20 ADD ADD DUP2 DUP2 MSTORE POP POP DUP6 DUP2 DUP2 MLOAD DUP2 LT PUSH2 0x16DA JUMPI PUSH2 0x16D9 PUSH2 0x1E99 JUMP JUMPDEST JUMPDEST PUSH1 0x20 MUL PUSH1 0x20 ADD ADD MLOAD PUSH1 0x20 ADD MLOAD PUSH1 0x1 PUSH1 0x2 DUP2 LT PUSH2 0x16F9 JUMPI PUSH2 0x16F8 PUSH2 0x1E99 JUMP JUMPDEST JUMPDEST PUSH1 0x20 MUL ADD MLOAD DUP3 PUSH1 0x5 PUSH1 0x6 DUP5 PUSH2 0x170E SWAP2 SWAP1 PUSH2 0x267B JUMP JUMPDEST PUSH2 0x1718 SWAP2 SWAP1 PUSH2 0x21F4 JUMP JUMPDEST DUP2 MLOAD DUP2 LT PUSH2 0x1729 JUMPI PUSH2 0x1728 PUSH2 0x1E99 JUMP JUMPDEST JUMPDEST PUSH1 0x20 MUL PUSH1 0x20 ADD ADD DUP2 DUP2 MSTORE POP POP DUP1 DUP1 PUSH2 0x1740 SWAP1 PUSH2 0x1EF7 JUMP JUMPDEST SWAP2 POP POP PUSH2 0x14C9 JUMP JUMPDEST POP PUSH2 0x1751 PUSH2 0x18DC JUMP JUMPDEST PUSH1 0x0 PUSH1 0x20 DUP3 PUSH1 0x20 DUP7 MUL PUSH1 0x20 DUP7 ADD PUSH1 0x8 PUSH2 0x7D0 GAS SUB STATICCALL SWAP1 POP DUP1 PUSH1 0x0 DUP2 SUB PUSH2 0x1773 JUMPI INVALID JUMPDEST POP DUP1 PUSH2 0x17B4 JUMPI PUSH1 0x40 MLOAD PUSH32 0x8C379A000000000000000000000000000000000000000000000000000000000 DUP2 MSTORE PUSH1 0x4 ADD PUSH2 0x17AB SWAP1 PUSH2 0x2709 JUMP JUMPDEST PUSH1 0x40 MLOAD DUP1 SWAP2 SUB SWAP1 REVERT JUMPDEST PUSH1 0x0 DUP3 PUSH1 0x0 PUSH1 0x1 DUP2 LT PUSH2 0x17CA JUMPI PUSH2 0x17C9 PUSH2 0x1E99 JUMP JUMPDEST JUMPDEST PUSH1 0x20 MUL ADD MLOAD EQ ISZERO SWAP6 POP POP POP POP POP POP SWAP3 SWAP2 POP POP JUMP JUMPDEST PUSH1 0x40 MLOAD DUP1 PUSH1 0x60 ADD PUSH1 0x40 MSTORE DUP1 PUSH2 0x17F1 PUSH2 0x1858 JUMP JUMPDEST DUP2 MSTORE PUSH1 0x20 ADD PUSH2 0x17FE PUSH2 0x18B6 JUMP JUMPDEST DUP2 MSTORE PUSH1 0x20 ADD PUSH2 0x180B PUSH2 0x1858 JUMP JUMPDEST DUP2 MSTORE POP SWAP1 JUMP JUMPDEST PUSH1 0x40 MLOAD DUP1 PUSH1 0xA0 ADD PUSH1 0x40 MSTORE DUP1 PUSH2 0x1824 PUSH2 0x1858 JUMP JUMPDEST DUP2 MSTORE PUSH1 0x20 ADD PUSH2 0x1831 PUSH2 0x18B6 JUMP JUMPDEST DUP2 MSTORE PUSH1 0x20 ADD PUSH2 0x183E PUSH2 0x18B6 JUMP JUMPDEST DUP2 MSTORE PUSH1 0x20 ADD PUSH2 0x184B PUSH2 0x18B6 JUMP JUMPDEST DUP2 MSTORE PUSH1 0x20 ADD PUSH1 0x60 DUP2 MSTORE POP SWAP1 JUMP JUMPDEST PUSH1 0x40 MLOAD DUP1 PUSH1 0x40 ADD PUSH1 0x40 MSTORE DUP1 PUSH1 0x0 DUP2 MSTORE PUSH1 0x20 ADD PUSH1 0x0 DUP2 MSTORE POP SWAP1 JUMP JUMPDEST PUSH1 0x40 MLOAD DUP1 PUSH1 0x60 ADD PUSH1 0x40 MSTORE DUP1 PUSH1 0x3 SWAP1 PUSH1 0x20 DUP3 MUL DUP1 CALLDATASIZE DUP4 CALLDATACOPY DUP1 DUP3 ADD SWAP2 POP POP SWAP1 POP POP SWAP1 JUMP JUMPDEST PUSH1 0x40 MLOAD DUP1 PUSH1 0x80 ADD PUSH1 0x40 MSTORE DUP1 PUSH1 0x4 SWAP1 PUSH1 0x20 DUP3 MUL DUP1 CALLDATASIZE DUP4 CALLDATACOPY DUP1 DUP3 ADD SWAP2 POP POP SWAP1 POP POP SWAP1 JUMP JUMPDEST PUSH1 0x40 MLOAD DUP1 PUSH1 0x40 ADD PUSH1 0x40 MSTORE DUP1 PUSH2 0x18C9 PUSH2 0x18FE JUMP JUMPDEST DUP2 MSTORE PUSH1 0x20 ADD PUSH2 0x18D6 PUSH2 0x18FE JUMP JUMPDEST DUP2 MSTORE POP SWAP1 JUMP JUMPDEST PUSH1 0x40 MLOAD DUP1 PUSH1 0x20 ADD PUSH1 0x40 MSTORE DUP1 PUSH1 0x1 SWAP1 PUSH1 0x20 DUP3 MUL DUP1 CALLDATASIZE DUP4 CALLDATACOPY DUP1 DUP3 ADD SWAP2 POP POP SWAP1 POP POP SWAP1 JUMP JUMPDEST PUSH1 0x40 MLOAD DUP1 PUSH1 0x40 ADD PUSH1 0x40 MSTORE DUP1 PUSH1 0x2 SWAP1 PUSH1 0x20 DUP3 MUL DUP1 CALLDATASIZE DUP4 CALLDATACOPY DUP1 DUP3 ADD SWAP2 POP POP SWAP1 POP POP SWAP1 JUMP JUMPDEST PUSH1 0x0 DUP2 SWAP1 POP SWAP2 SWAP1 POP JUMP JUMPDEST PUSH2 0x1933 DUP2 PUSH2 0x1920 JUMP JUMPDEST DUP3 MSTORE POP POP JUMP JUMPDEST PUSH1 0x0 PUSH1 0x20 DUP3 ADD SWAP1 POP PUSH2 0x194E PUSH1 0x0 DUP4 ADD DUP5 PUSH2 0x192A JUMP JUMPDEST SWAP3 SWAP2 POP POP JUMP JUMPDEST PUSH1 0x0 PUSH1 0x40 MLOAD SWAP1 POP SWAP1 JUMP JUMPDEST PUSH1 0x0 DUP1 REVERT JUMPDEST PUSH1 0x0 DUP1 REVERT JUMPDEST PUSH1 0x0 PUSH1 0x1F NOT PUSH1 0x1F DUP4 ADD AND SWAP1 POP SWAP2 SWAP1 POP JUMP JUMPDEST PUSH32 0x4E487B7100000000000000000000000000000000000000000000000000000000 PUSH1 0x0 MSTORE PUSH1 0x41 PUSH1 0x4 MSTORE PUSH1 0x24 PUSH1 0x0 REVERT JUMPDEST PUSH2 0x19B1 DUP3 PUSH2 0x1968 JUMP JUMPDEST DUP2 ADD DUP2 DUP2 LT PUSH8 0xFFFFFFFFFFFFFFFF DUP3 GT OR ISZERO PUSH2 0x19D0 JUMPI PUSH2 0x19CF PUSH2 0x1979 JUMP JUMPDEST JUMPDEST DUP1 PUSH1 0x40 MSTORE POP POP POP JUMP JUMPDEST PUSH1 0x0 PUSH2 0x19E3 PUSH2 0x1954 JUMP JUMPDEST SWAP1 POP PUSH2 0x19EF DUP3 DUP3 PUSH2 0x19A8 JUMP JUMPDEST SWAP2 SWAP1 POP JUMP JUMPDEST PUSH1 0x0 PUSH8 0xFFFFFFFFFFFFFFFF DUP3 GT ISZERO PUSH2 0x1A0F JUMPI PUSH2 0x1A0E PUSH2 0x1979 JUMP JUMPDEST JUMPDEST PUSH1 0x20 DUP3 MUL SWAP1 POP SWAP2 SWAP1 POP JUMP JUMPDEST PUSH1 0x0 DUP1 REVERT JUMPDEST PUSH2 0x1A28 DUP2 PUSH2 0x1920 JUMP JUMPDEST DUP2 EQ PUSH2 0x1A33 JUMPI PUSH1 0x0 DUP1 REVERT JUMPDEST POP JUMP JUMPDEST PUSH1 0x0 DUP2 CALLDATALOAD SWAP1 POP PUSH2 0x1A45 DUP2 PUSH2 0x1A1F JUMP JUMPDEST SWAP3 SWAP2 POP POP JUMP JUMPDEST PUSH1 0x0 PUSH2 0x1A5E PUSH2 0x1A59 DUP5 PUSH2 0x19F4 JUMP JUMPDEST PUSH2 0x19D9 JUMP JUMPDEST SWAP1 POP DUP1 PUSH1 0x20 DUP5 MUL DUP4 ADD DUP6 DUP2 GT ISZERO PUSH2 0x1A78 JUMPI PUSH2 0x1A77 PUSH2 0x1A1A JUMP JUMPDEST JUMPDEST DUP4 JUMPDEST DUP2 DUP2 LT ISZERO PUSH2 0x1AA1 JUMPI DUP1 PUSH2 0x1A8D DUP9 DUP3 PUSH2 0x1A36 JUMP JUMPDEST DUP5 MSTORE PUSH1 0x20 DUP5 ADD SWAP4 POP POP PUSH1 0x20 DUP2 ADD SWAP1 POP PUSH2 0x1A7A JUMP JUMPDEST POP POP POP SWAP4 SWAP3 POP POP POP JUMP JUMPDEST PUSH1 0x0 DUP3 PUSH1 0x1F DUP4 ADD SLT PUSH2 0x1AC0 JUMPI PUSH2 0x1ABF PUSH2 0x1963 JUMP JUMPDEST JUMPDEST PUSH1 0x2 PUSH2 0x1ACD DUP5 DUP3 DUP6 PUSH2 0x1A4B JUMP JUMPDEST SWAP2 POP POP SWAP3 SWAP2 POP POP JUMP JUMPDEST PUSH1 0x0 PUSH8 0xFFFFFFFFFFFFFFFF DUP3 GT ISZERO PUSH2 0x1AF1 JUMPI PUSH2 0x1AF0 PUSH2 0x1979 JUMP JUMPDEST JUMPDEST PUSH1 0x20 DUP3 MUL SWAP1 POP SWAP2 SWAP1 POP JUMP JUMPDEST PUSH1 0x0 PUSH2 0x1B0F PUSH2 0x1B0A DUP5 PUSH2 0x1AD6 JUMP JUMPDEST PUSH2 0x19D9 JUMP JUMPDEST SWAP1 POP DUP1 PUSH1 0x40 DUP5 MUL DUP4 ADD DUP6 DUP2 GT ISZERO PUSH2 0x1B29 JUMPI PUSH2 0x1B28 PUSH2 0x1A1A JUMP JUMPDEST JUMPDEST DUP4 JUMPDEST DUP2 DUP2 LT ISZERO PUSH2 0x1B52 JUMPI DUP1 PUSH2 0x1B3E DUP9 DUP3 PUSH2 0x1AAB JUMP JUMPDEST DUP5 MSTORE PUSH1 0x20 DUP5 ADD SWAP4 POP POP PUSH1 0x40 DUP2 ADD SWAP1 POP PUSH2 0x1B2B JUMP JUMPDEST POP POP POP SWAP4 SWAP3 POP POP POP JUMP JUMPDEST PUSH1 0x0 DUP3 PUSH1 0x1F DUP4 ADD SLT PUSH2 0x1B71 JUMPI PUSH2 0x1B70 PUSH2 0x1963 JUMP JUMPDEST JUMPDEST PUSH1 0x2 PUSH2 0x1B7E DUP5 DUP3 DUP6 PUSH2 0x1AFC JUMP JUMPDEST SWAP2 POP POP SWAP3 SWAP2 POP POP JUMP JUMPDEST PUSH1 0x0 PUSH8 0xFFFFFFFFFFFFFFFF DUP3 GT ISZERO PUSH2 0x1BA2 JUMPI PUSH2 0x1BA1 PUSH2 0x1979 JUMP JUMPDEST JUMPDEST PUSH1 0x20 DUP3 MUL SWAP1 POP SWAP2 SWAP1 POP JUMP JUMPDEST PUSH1 0x0 PUSH2 0x1BC0 PUSH2 0x1BBB DUP5 PUSH2 0x1B87 JUMP JUMPDEST PUSH2 0x19D9 JUMP JUMPDEST SWAP1 POP DUP1 PUSH1 0x20 DUP5 MUL DUP4 ADD DUP6 DUP2 GT ISZERO PUSH2 0x1BDA JUMPI PUSH2 0x1BD9 PUSH2 0x1A1A JUMP JUMPDEST JUMPDEST DUP4 JUMPDEST DUP2 DUP2 LT ISZERO PUSH2 0x1C03 JUMPI DUP1 PUSH2 0x1BEF DUP9 DUP3 PUSH2 0x1A36 JUMP JUMPDEST DUP5 MSTORE PUSH1 0x20 DUP5 ADD SWAP4 POP POP PUSH1 0x20 DUP2 ADD SWAP1 POP PUSH2 0x1BDC JUMP JUMPDEST POP POP POP SWAP4 SWAP3 POP POP POP JUMP JUMPDEST PUSH1 0x0 DUP3 PUSH1 0x1F DUP4 ADD SLT PUSH2 0x1C22 JUMPI PUSH2 0x1C21 PUSH2 0x1963 JUMP JUMPDEST JUMPDEST PUSH1 0x1 PUSH2 0x1C2F DUP5 DUP3 DUP6 PUSH2 0x1BAD JUMP JUMPDEST SWAP2 POP POP SWAP3 SWAP2 POP POP JUMP JUMPDEST PUSH1 0x0 DUP1 PUSH1 0x0 DUP1 PUSH2 0x120 DUP6 DUP8 SUB SLT ISZERO PUSH2 0x1C53 JUMPI PUSH2 0x1C52 PUSH2 0x195E JUMP JUMPDEST JUMPDEST PUSH1 0x0 PUSH2 0x1C61 DUP8 DUP3 DUP9 ADD PUSH2 0x1AAB JUMP JUMPDEST SWAP5 POP POP PUSH1 0x40 PUSH2 0x1C72 DUP8 DUP3 DUP9 ADD PUSH2 0x1B5C JUMP JUMPDEST SWAP4 POP POP PUSH1 0xC0 PUSH2 0x1C83 DUP8 DUP3 DUP9 ADD PUSH2 0x1AAB JUMP JUMPDEST SWAP3 POP POP PUSH2 0x100 PUSH2 0x1C95 DUP8 DUP3 DUP9 ADD PUSH2 0x1C0D JUMP JUMPDEST SWAP2 POP POP SWAP3 SWAP6 SWAP2 SWAP5 POP SWAP3 POP JUMP JUMPDEST PUSH1 0x0 DUP2 ISZERO ISZERO SWAP1 POP SWAP2 SWAP1 POP JUMP JUMPDEST PUSH2 0x1CB6 DUP2 PUSH2 0x1CA1 JUMP JUMPDEST DUP3 MSTORE POP POP JUMP JUMPDEST PUSH1 0x0 PUSH1 0x20 DUP3 ADD SWAP1 POP PUSH2 0x1CD1 PUSH1 0x0 DUP4 ADD DUP5 PUSH2 0x1CAD JUMP JUMPDEST SWAP3 SWAP2 POP POP JUMP JUMPDEST PUSH1 0x0 PUSH20 0xFFFFFFFFFFFFFFFFFFFFFFFFFFFFFFFFFFFFFFFF DUP3 AND SWAP1 POP SWAP2 SWAP1 POP JUMP JUMPDEST PUSH1 0x0 PUSH2 0x1D02 DUP3 PUSH2 0x1CD7 JUMP JUMPDEST SWAP1 POP SWAP2 SWAP1 POP JUMP JUMPDEST PUSH2 0x1D12 DUP2 PUSH2 0x1CF7 JUMP JUMPDEST DUP3 MSTORE POP POP JUMP JUMPDEST PUSH1 0x0 PUSH1 0x20 DUP3 ADD SWAP1 POP PUSH2 0x1D2D PUSH1 0x0 DUP4 ADD DUP5 PUSH2 0x1D09 JUMP JUMPDEST SWAP3 SWAP2 POP POP JUMP JUMPDEST PUSH1 0x0 DUP2 MLOAD SWAP1 POP SWAP2 SWAP1 POP JUMP JUMPDEST PUSH1 0x0 DUP3 DUP3 MSTORE PUSH1 0x20 DUP3 ADD SWAP1 POP SWAP3 SWAP2 POP POP JUMP JUMPDEST PUSH1 0x0 DUP2 SWAP1 POP PUSH1 0x20 DUP3 ADD SWAP1 POP SWAP2 SWAP1 POP JUMP JUMPDEST PUSH2 0x1D68 DUP2 PUSH2 0x1920 JUMP JUMPDEST DUP3 MSTORE POP POP JUMP JUMPDEST PUSH1 0x0 PUSH2 0x1D7A DUP4 DUP4 PUSH2 0x1D5F JUMP JUMPDEST PUSH1 0x20 DUP4 ADD SWAP1 POP SWAP3 SWAP2 POP POP JUMP JUMPDEST PUSH1 0x0 PUSH1 0x20 DUP3 ADD SWAP1 POP SWAP2 SWAP1 POP JUMP JUMPDEST PUSH1 0x0 PUSH2 0x1D9E DUP3 PUSH2 0x1D33 JUMP JUMPDEST PUSH2 0x1DA8 DUP2 DUP6 PUSH2 0x1D3E JUMP JUMPDEST SWAP4 POP PUSH2 0x1DB3 DUP4 PUSH2 0x1D4F JUMP JUMPDEST DUP1 PUSH1 0x0 JUMPDEST DUP4 DUP2 LT ISZERO PUSH2 0x1DE4 JUMPI DUP2 MLOAD PUSH2 0x1DCB DUP9 DUP3 PUSH2 0x1D6E JUMP JUMPDEST SWAP8 POP PUSH2 0x1DD6 DUP4 PUSH2 0x1D86 JUMP JUMPDEST SWAP3 POP POP PUSH1 0x1 DUP2 ADD SWAP1 POP PUSH2 0x1DB7 JUMP JUMPDEST POP DUP6 SWAP4 POP POP POP POP SWAP3 SWAP2 POP POP JUMP JUMPDEST PUSH1 0x0 PUSH1 0x20 DUP3 ADD SWAP1 POP DUP2 DUP2 SUB PUSH1 0x0 DUP4 ADD MSTORE PUSH2 0x1E0B DUP2 DUP5 PUSH2 0x1D93 JUMP JUMPDEST SWAP1 POP SWAP3 SWAP2 POP POP JUMP JUMPDEST PUSH1 0x0 PUSH1 0x20 DUP3 DUP5 SUB SLT ISZERO PUSH2 0x1E29 JUMPI PUSH2 0x1E28 PUSH2 0x195E JUMP JUMPDEST JUMPDEST PUSH1 0x0 PUSH2 0x1E37 DUP5 DUP3 DUP6 ADD PUSH2 0x1A36 JUMP JUMPDEST SWAP2 POP POP SWAP3 SWAP2 POP POP JUMP JUMPDEST PUSH2 0x1E49 DUP2 PUSH2 0x1CF7 JUMP JUMPDEST DUP2 EQ PUSH2 0x1E54 JUMPI PUSH1 0x0 DUP1 REVERT JUMPDEST POP JUMP JUMPDEST PUSH1 0x0 DUP2 CALLDATALOAD SWAP1 POP PUSH2 0x1E66 DUP2 PUSH2 0x1E40 JUMP JUMPDEST SWAP3 SWAP2 POP POP JUMP JUMPDEST PUSH1 0x0 PUSH1 0x20 DUP3 DUP5 SUB SLT ISZERO PUSH2 0x1E82 JUMPI PUSH2 0x1E81 PUSH2 0x195E JUMP JUMPDEST JUMPDEST PUSH1 0x0 PUSH2 0x1E90 DUP5 DUP3 DUP6 ADD PUSH2 0x1E57 JUMP JUMPDEST SWAP2 POP POP SWAP3 SWAP2 POP POP JUMP JUMPDEST PUSH32 0x4E487B7100000000000000000000000000000000000000000000000000000000 PUSH1 0x0 MSTORE PUSH1 0x32 PUSH1 0x4 MSTORE PUSH1 0x24 PUSH1 0x0 REVERT JUMPDEST PUSH32 0x4E487B7100000000000000000000000000000000000000000000000000000000 PUSH1 0x0 MSTORE PUSH1 0x11 PUSH1 0x4 MSTORE PUSH1 0x24 PUSH1 0x0 REVERT JUMPDEST PUSH1 0x0 PUSH2 0x1F02 DUP3 PUSH2 0x1920 JUMP JUMPDEST SWAP2 POP PUSH32 0xFFFFFFFFFFFFFFFFFFFFFFFFFFFFFFFFFFFFFFFFFFFFFFFFFFFFFFFFFFFFFFFF DUP3 SUB PUSH2 0x1F34 JUMPI PUSH2 0x1F33 PUSH2 0x1EC8 JUMP JUMPDEST JUMPDEST PUSH1 0x1 DUP3 ADD SWAP1 POP SWAP2 SWAP1 POP JUMP JUMPDEST PUSH1 0x0 DUP2 PUSH1 0x1 SHR SWAP1 POP SWAP2 SWAP1 POP JUMP JUMPDEST PUSH1 0x0 DUP1 DUP3 SWAP2 POP DUP4 SWAP1 POP JUMPDEST PUSH1 0x1 DUP6 GT ISZERO PUSH2 0x1F96 JUMPI DUP1 DUP7 DIV DUP2 GT ISZERO PUSH2 0x1F72 JUMPI PUSH2 0x1F71 PUSH2 0x1EC8 JUMP JUMPDEST JUMPDEST PUSH1 0x1 DUP6 AND ISZERO PUSH2 0x1F81 JUMPI DUP1 DUP3 MUL SWAP2 POP JUMPDEST DUP1 DUP2 MUL SWAP1 POP PUSH2 0x1F8F DUP6 PUSH2 0x1F3F JUMP JUMPDEST SWAP5 POP PUSH2 0x1F56 JUMP JUMPDEST SWAP5 POP SWAP5 SWAP3 POP POP POP JUMP JUMPDEST PUSH1 0x0 DUP3 PUSH2 0x1FAF JUMPI PUSH1 0x1 SWAP1 POP PUSH2 0x206B JUMP JUMPDEST DUP2 PUSH2 0x1FBD JUMPI PUSH1 0x0 SWAP1 POP PUSH2 0x206B JUMP JUMPDEST DUP2 PUSH1 0x1 DUP2 EQ PUSH2 0x1FD3 JUMPI PUSH1 0x2 DUP2 EQ PUSH2 0x1FDD JUMPI PUSH2 0x200C JUMP JUMPDEST PUSH1 0x1 SWAP2 POP POP PUSH2 0x206B JUMP JUMPDEST PUSH1 0xFF DUP5 GT ISZERO PUSH2 0x1FEF JUMPI PUSH2 0x1FEE PUSH2 0x1EC8 JUMP JUMPDEST JUMPDEST DUP4 PUSH1 0x2 EXP SWAP2 POP DUP5 DUP3 GT ISZERO PUSH2 0x2006 JUMPI PUSH2 0x2005 PUSH2 0x1EC8 JUMP JUMPDEST JUMPDEST POP PUSH2 0x206B JUMP JUMPDEST POP PUSH1 0x20 DUP4 LT PUSH2 0x133 DUP4 LT AND PUSH1 0x4E DUP5 LT PUSH1 0xB DUP5 LT AND OR ISZERO PUSH2 0x2041 JUMPI DUP3 DUP3 EXP SWAP1 POP DUP4 DUP2 GT ISZERO PUSH2 0x203C JUMPI PUSH2 0x203B PUSH2 0x1EC8 JUMP JUMPDEST JUMPDEST PUSH2 0x206B JUMP JUMPDEST PUSH2 0x204E DUP5 DUP5 DUP5 PUSH1 0x1 PUSH2 0x1F4C JUMP JUMPDEST SWAP3 POP SWAP1 POP DUP2 DUP5 DIV DUP2 GT ISZERO PUSH2 0x2065 JUMPI PUSH2 0x2064 PUSH2 0x1EC8 JUMP JUMPDEST JUMPDEST DUP2 DUP2 MUL SWAP1 POP JUMPDEST SWAP4 SWAP3 POP POP POP JUMP JUMPDEST PUSH1 0x0 PUSH2 0x207D DUP3 PUSH2 0x1920 JUMP JUMPDEST SWAP2 POP PUSH2 0x2088 DUP4 PUSH2 0x1920 JUMP JUMPDEST SWAP3 POP PUSH2 0x20B5 PUSH32 0xFFFFFFFFFFFFFFFFFFFFFFFFFFFFFFFFFFFFFFFFFFFFFFFFFFFFFFFFFFFFFFFF DUP5 DUP5 PUSH2 0x1F9F JUMP JUMPDEST SWAP1 POP SWAP3 SWAP2 POP POP JUMP JUMPDEST PUSH1 0x0 DUP3 DUP3 MSTORE PUSH1 0x20 DUP3 ADD SWAP1 POP SWAP3 SWAP2 POP POP JUMP JUMPDEST PUSH32 0x4D65726B6C65547265653A2063616E6E6F7420696E73657274206D6F7265206C PUSH1 0x0 DUP3 ADD MSTORE PUSH32 0x65617665732E0000000000000000000000000000000000000000000000000000 PUSH1 0x20 DUP3 ADD MSTORE POP JUMP JUMPDEST PUSH1 0x0 PUSH2 0x212A PUSH1 0x26 DUP4 PUSH2 0x20BD JUMP JUMPDEST SWAP2 POP PUSH2 0x2135 DUP3 PUSH2 0x20CE JUMP JUMPDEST PUSH1 0x40 DUP3 ADD SWAP1 POP SWAP2 SWAP1 POP JUMP JUMPDEST PUSH1 0x0 PUSH1 0x20 DUP3 ADD SWAP1 POP DUP2 DUP2 SUB PUSH1 0x0 DUP4 ADD MSTORE PUSH2 0x2159 DUP2 PUSH2 0x211D JUMP JUMPDEST SWAP1 POP SWAP2 SWAP1 POP JUMP JUMPDEST PUSH32 0x4E487B7100000000000000000000000000000000000000000000000000000000 PUSH1 0x0 MSTORE PUSH1 0x12 PUSH1 0x4 MSTORE PUSH1 0x24 PUSH1 0x0 REVERT JUMPDEST PUSH1 0x0 PUSH2 0x219A DUP3 PUSH2 0x1920 JUMP JUMPDEST SWAP2 POP PUSH2 0x21A5 DUP4 PUSH2 0x1920 JUMP JUMPDEST SWAP3 POP DUP3 PUSH2 0x21B5 JUMPI PUSH2 0x21B4 PUSH2 0x2160 JUMP JUMPDEST JUMPDEST DUP3 DUP3 MOD SWAP1 POP SWAP3 SWAP2 POP POP JUMP JUMPDEST PUSH1 0x0 PUSH2 0x21CB DUP3 PUSH2 0x1920 JUMP JUMPDEST SWAP2 POP PUSH2 0x21D6 DUP4 PUSH2 0x1920 JUMP JUMPDEST SWAP3 POP DUP3 DUP3 SUB SWAP1 POP DUP2 DUP2 GT ISZERO PUSH2 0x21EE JUMPI PUSH2 0x21ED PUSH2 0x1EC8 JUMP JUMPDEST JUMPDEST SWAP3 SWAP2 POP POP JUMP JUMPDEST PUSH1 0x0 PUSH2 0x21FF DUP3 PUSH2 0x1920 JUMP JUMPDEST SWAP2 POP PUSH2 0x220A DUP4 PUSH2 0x1920 JUMP JUMPDEST SWAP3 POP DUP3 DUP3 ADD SWAP1 POP DUP1 DUP3 GT ISZERO PUSH2 0x2222 JUMPI PUSH2 0x2221 PUSH2 0x1EC8 JUMP JUMPDEST JUMPDEST SWAP3 SWAP2 POP POP JUMP JUMPDEST PUSH1 0x0 PUSH2 0x2233 DUP3 PUSH2 0x1920 JUMP JUMPDEST SWAP2 POP PUSH2 0x223E DUP4 PUSH2 0x1920 JUMP JUMPDEST SWAP3 POP DUP3 PUSH2 0x224E JUMPI PUSH2 0x224D PUSH2 0x2160 JUMP JUMPDEST JUMPDEST DUP3 DUP3 DIV SWAP1 POP SWAP3 SWAP2 POP POP JUMP JUMPDEST PUSH1 0x0 PUSH1 0x2 SWAP1 POP SWAP2 SWAP1 POP JUMP JUMPDEST PUSH1 0x0 DUP2 SWAP1 POP SWAP3 SWAP2 POP POP JUMP JUMPDEST PUSH1 0x0 DUP2 SWAP1 POP SWAP2 SWAP1 POP JUMP JUMPDEST PUSH2 0x2282 DUP2 PUSH2 0x1920 JUMP JUMPDEST DUP3 MSTORE POP POP JUMP JUMPDEST PUSH1 0x0 PUSH2 0x2294 DUP4 DUP4 PUSH2 0x2279 JUMP JUMPDEST PUSH1 0x20 DUP4 ADD SWAP1 POP SWAP3 SWAP2 POP POP JUMP JUMPDEST PUSH1 0x0 PUSH1 0x20 DUP3 ADD SWAP1 POP SWAP2 SWAP1 POP JUMP JUMPDEST PUSH2 0x22B6 DUP2 PUSH2 0x2259 JUMP JUMPDEST PUSH2 0x22C0 DUP2 DUP5 PUSH2 0x2264 JUMP JUMPDEST SWAP3 POP PUSH2 0x22CB DUP3 PUSH2 0x226F JUMP JUMPDEST DUP1 PUSH1 0x0 JUMPDEST DUP4 DUP2 LT ISZERO PUSH2 0x22FC JUMPI DUP2 MLOAD PUSH2 0x22E3 DUP8 DUP3 PUSH2 0x2288 JUMP JUMPDEST SWAP7 POP PUSH2 0x22EE DUP4 PUSH2 0x22A0 JUMP JUMPDEST SWAP3 POP POP PUSH1 0x1 DUP2 ADD SWAP1 POP PUSH2 0x22CF JUMP JUMPDEST POP POP POP POP POP POP JUMP JUMPDEST PUSH1 0x0 PUSH1 0x40 DUP3 ADD SWAP1 POP PUSH2 0x2319 PUSH1 0x0 DUP4 ADD DUP5 PUSH2 0x22AD JUMP JUMPDEST SWAP3 SWAP2 POP POP JUMP JUMPDEST PUSH1 0x0 DUP2 MLOAD SWAP1 POP PUSH2 0x232E DUP2 PUSH2 0x1A1F JUMP JUMPDEST SWAP3 SWAP2 POP POP JUMP JUMPDEST PUSH1 0x0 PUSH1 0x20 DUP3 DUP5 SUB SLT ISZERO PUSH2 0x234A JUMPI PUSH2 0x2349 PUSH2 0x195E JUMP JUMPDEST JUMPDEST PUSH1 0x0 PUSH2 0x2358 DUP5 DUP3 DUP6 ADD PUSH2 0x231F JUMP JUMPDEST SWAP2 POP POP SWAP3 SWAP2 POP POP JUMP JUMPDEST PUSH32 0x4F776E61626C653A206E6577206F776E657220697320746865207A65726F2061 PUSH1 0x0 DUP3 ADD MSTORE PUSH32 0x6464726573730000000000000000000000000000000000000000000000000000 PUSH1 0x20 DUP3 ADD MSTORE POP JUMP JUMPDEST PUSH1 0x0 PUSH2 0x23BD PUSH1 0x26 DUP4 PUSH2 0x20BD JUMP JUMPDEST SWAP2 POP PUSH2 0x23C8 DUP3 PUSH2 0x2361 JUMP JUMPDEST PUSH1 0x40 DUP3 ADD SWAP1 POP SWAP2 SWAP1 POP JUMP JUMPDEST PUSH1 0x0 PUSH1 0x20 DUP3 ADD SWAP1 POP DUP2 DUP2 SUB PUSH1 0x0 DUP4 ADD MSTORE PUSH2 0x23EC DUP2 PUSH2 0x23B0 JUMP JUMPDEST SWAP1 POP SWAP2 SWAP1 POP JUMP JUMPDEST PUSH32 0x76657269666965722D6261642D696E7075740000000000000000000000000000 PUSH1 0x0 DUP3 ADD MSTORE POP JUMP JUMPDEST PUSH1 0x0 PUSH2 0x2429 PUSH1 0x12 DUP4 PUSH2 0x20BD JUMP JUMPDEST SWAP2 POP PUSH2 0x2434 DUP3 PUSH2 0x23F3 JUMP JUMPDEST PUSH1 0x20 DUP3 ADD SWAP1 POP SWAP2 SWAP1 POP JUMP JUMPDEST PUSH1 0x0 PUSH1 0x20 DUP3 ADD SWAP1 POP DUP2 DUP2 SUB PUSH1 0x0 DUP4 ADD MSTORE PUSH2 0x2458 DUP2 PUSH2 0x241C JUMP JUMPDEST SWAP1 POP SWAP2 SWAP1 POP JUMP JUMPDEST PUSH32 0x76657269666965722D6774652D736E61726B2D7363616C61722D6669656C6400 PUSH1 0x0 DUP3 ADD MSTORE POP JUMP JUMPDEST PUSH1 0x0 PUSH2 0x2495 PUSH1 0x1F DUP4 PUSH2 0x20BD JUMP JUMPDEST SWAP2 POP PUSH2 0x24A0 DUP3 PUSH2 0x245F JUMP JUMPDEST PUSH1 0x20 DUP3 ADD SWAP1 POP SWAP2 SWAP1 POP JUMP JUMPDEST PUSH1 0x0 PUSH1 0x20 DUP3 ADD SWAP1 POP DUP2 DUP2 SUB PUSH1 0x0 DUP4 ADD MSTORE PUSH2 0x24C4 DUP2 PUSH2 0x2488 JUMP JUMPDEST SWAP1 POP SWAP2 SWAP1 POP JUMP JUMPDEST PUSH32 0x4F776E61626C653A2063616C6C6572206973206E6F7420746865206F776E6572 PUSH1 0x0 DUP3 ADD MSTORE POP JUMP JUMPDEST PUSH1 0x0 PUSH2 0x2501 PUSH1 0x20 DUP4 PUSH2 0x20BD JUMP JUMPDEST SWAP2 POP PUSH2 0x250C DUP3 PUSH2 0x24CB JUMP JUMPDEST PUSH1 0x20 DUP3 ADD SWAP1 POP SWAP2 SWAP1 POP JUMP JUMPDEST PUSH1 0x0 PUSH1 0x20 DUP3 ADD SWAP1 POP DUP2 DUP2 SUB PUSH1 0x0 DUP4 ADD MSTORE PUSH2 0x2530 DUP2 PUSH2 0x24F4 JUMP JUMPDEST SWAP1 POP SWAP2 SWAP1 POP JUMP JUMPDEST PUSH32 0x70616972696E672D6D756C2D6661696C65640000000000000000000000000000 PUSH1 0x0 DUP3 ADD MSTORE POP JUMP JUMPDEST PUSH1 0x0 PUSH2 0x256D PUSH1 0x12 DUP4 PUSH2 0x20BD JUMP JUMPDEST SWAP2 POP PUSH2 0x2578 DUP3 PUSH2 0x2537 JUMP JUMPDEST PUSH1 0x20 DUP3 ADD SWAP1 POP SWAP2 SWAP1 POP JUMP JUMPDEST PUSH1 0x0 PUSH1 0x20 DUP3 ADD SWAP1 POP DUP2 DUP2 SUB PUSH1 0x0 DUP4 ADD MSTORE PUSH2 0x259C DUP2 PUSH2 0x2560 JUMP JUMPDEST SWAP1 POP SWAP2 SWAP1 POP JUMP JUMPDEST PUSH32 0x70616972696E672D6164642D6661696C65640000000000000000000000000000 PUSH1 0x0 DUP3 ADD MSTORE POP JUMP JUMPDEST PUSH1 0x0 PUSH2 0x25D9 PUSH1 0x12 DUP4 PUSH2 0x20BD JUMP JUMPDEST SWAP2 POP PUSH2 0x25E4 DUP3 PUSH2 0x25A3 JUMP JUMPDEST PUSH1 0x20 DUP3 ADD SWAP1 POP SWAP2 SWAP1 POP JUMP JUMPDEST PUSH1 0x0 PUSH1 0x20 DUP3 ADD SWAP1 POP DUP2 DUP2 SUB PUSH1 0x0 DUP4 ADD MSTORE PUSH2 0x2608 DUP2 PUSH2 0x25CC JUMP JUMPDEST SWAP1 POP SWAP2 SWAP1 POP JUMP JUMPDEST PUSH32 0x70616972696E672D6C656E677468732D6661696C656400000000000000000000 PUSH1 0x0 DUP3 ADD MSTORE POP JUMP JUMPDEST PUSH1 0x0 PUSH2 0x2645 PUSH1 0x16 DUP4 PUSH2 0x20BD JUMP JUMPDEST SWAP2 POP PUSH2 0x2650 DUP3 PUSH2 0x260F JUMP JUMPDEST PUSH1 0x20 DUP3 ADD SWAP1 POP SWAP2 SWAP1 POP JUMP JUMPDEST PUSH1 0x0 PUSH1 0x20 DUP3 ADD SWAP1 POP DUP2 DUP2 SUB PUSH1 0x0 DUP4 ADD MSTORE PUSH2 0x2674 DUP2 PUSH2 0x2638 JUMP JUMPDEST SWAP1 POP SWAP2 SWAP1 POP JUMP JUMPDEST PUSH1 0x0 PUSH2 0x2686 DUP3 PUSH2 0x1920 JUMP JUMPDEST SWAP2 POP PUSH2 0x2691 DUP4 PUSH2 0x1920 JUMP JUMPDEST SWAP3 POP DUP3 DUP3 MUL PUSH2 0x269F DUP2 PUSH2 0x1920 JUMP JUMPDEST SWAP2 POP DUP3 DUP3 DIV DUP5 EQ DUP4 ISZERO OR PUSH2 0x26B6 JUMPI PUSH2 0x26B5 PUSH2 0x1EC8 JUMP JUMPDEST JUMPDEST POP SWAP3 SWAP2 POP POP JUMP JUMPDEST PUSH32 0x70616972696E672D6F70636F64652D6661696C65640000000000000000000000 PUSH1 0x0 DUP3 ADD MSTORE POP JUMP JUMPDEST PUSH1 0x0 PUSH2 0x26F3 PUSH1 0x15 DUP4 PUSH2 0x20BD JUMP JUMPDEST SWAP2 POP PUSH2 0x26FE DUP3 PUSH2 0x26BD JUMP JUMPDEST PUSH1 0x20 DUP3 ADD SWAP1 POP SWAP2 SWAP1 POP JUMP JUMPDEST PUSH1 0x0 PUSH1 0x20 DUP3 ADD SWAP1 POP DUP2 DUP2 SUB PUSH1 0x0 DUP4 ADD MSTORE PUSH2 0x2722 DUP2 PUSH2 0x26E6 JUMP JUMPDEST SWAP1 POP SWAP2 SWAP1 POP JUMP INVALID LOG2 PUSH5 0x6970667358 0x22 SLT KECCAK256 0xD3 XOR PUSH25 0x9F24EC073EFF9A44A88A6ECD2E99096E26C1B5F171BFE02E37 DUP2 REVERT 0x2D PUSH7 0x64736F6C634300 ADDMOD SLT STOP CALLER "},"methodIdentifiers":{"hashByIndex(uint256)":"f716e5ed","hashLength()":"8abe5593","hashes()":"a81d9bcc","index()":"2986c0e5","insertLeaf(uint256)":"b7202434","owner()":"8da5cb5b","renounceOwnership()":"715018a6","root()":"ebf0c717","transferOwnership(address)":"f2fde38b","verify(uint256[2],uint256[2][2],uint256[2],uint256[1])":"2fa8ea6d","verifyProof(uint256[2],uint256[2][2],uint256[2],uint256[1])":"43753b4d"}}}}}